:100000000C9446000C9466000C9466000C946600F8
:100010000C9466000C9466000C9466000C946600C8
:100020000C9466000C9466000C9466000C946600B8
:100030000C9466000C9466000C9466000C946600A8
:100040000C9466000C9466000C9466000C94660098
:100050000C9466000C9466000C9466000C94660088
:100060000C9466000C9466000C9466000C94660078
:100070000C9466000C9466000C9466000C94660068
:100080000C9466000C9466000C94660011241FBE4C
:10009000CFEFD0E1DEBFCDBF11E0A0E0B1E0E0E006
:1000A000F2E000E00BBF02C007900D92A030B10754
:1000B000D9F71BBE11E0A0E0B1E001C01D92A43051
:1000C000B107E1F70E9468000C94FE000C94000058
:1000D000CF93DF93CDB7DEB787E390E021E0FC015B
:1000E000208382E290E02FEFFC01208383E590E003
:1000F0002EE1FC01208385E490E02CE1FC012083CB
:1001000081E590E02FE1FC01208383E490E02FE182
:10011000FC01208382E590E0FC01108284E490E001
:10012000FC01108288E390E021E0FC01208383E25F
:1001300090E024E0FC01208301C0000086E590E00F
:10014000FC018081882F90E082709070009741F1CF
:100150008091020190910301019690930301809395
:10016000020180910201909103018436910571F49E
:1001700088E390E028E330E0F901308121E0232793
:10018000FC012083109203011092020186E590E0A9
:1001900026E530E0F90120812260FC012083CDCFEB
:1001A00086E590E0FC01808188233CF68091000187
:1001B000909101010196909301018093000180913B
:1001C000000190910101883C910571F483E290E077
:1001D00023E230E0F901308124E02327FC01208371
:1001E000109201011092000186E590E026E530E0D2
:1001F000F90120812068FC0120839FCFF894FFCF74
:00000001FF
