:100000000C9446000C9466000C9466000C946600F8
:100010000C9466000C9466000C9466000C946600C8
:100020000C9466000C9466000C9468000C946600B6
:100030000C9466000C9466000C9466000C946600A8
:100040000C9466000C9466000C9466000C94660098
:100050000C9466000C9466000C9466000C94660088
:100060000C9466000C9466000C9466000C94660078
:100070000C9466000C9466000C9466000C94660068
:100080000C9466000C9466000C94660011241FBE4C
:10009000CFEFD0E1DEBFCDBF11E0A0E0B1E0E8EAF4
:1000A000F1E000E00BBF02C007900D92A030B10755
:1000B000D9F71BBE11E0A0E0B1E001C01D92A23053
:1000C000B107E1F70E94AF000C94D2000C9400003D
:1000D0001F920F920FB60F9200905B000F921124A7
:1000E0002F933F938F939F93EF93FF93CF93DF9340
:1000F000CDB7DEB7809100019091010123E0883EE9
:10010000920754F48091000190910101019690931F
:100110000101809300010EC01092010110920001B4
:1001200083E290E023E230E0F90120812095247001
:10013000FC01208384E490E021EEFC012083DF9128
:10014000CF91FF91EF919F918F913F912F910F90C0
:1001500000925B000F900FBE0F901F901895CF93E9
:10016000DF93CDB7DEB782E290E024E0FC0120838C
:1001700085E490E024E0FC01208384E490E021EE1B
:10018000FC01208387E590E020E4FC0120838FE5DB
:1001900090E020E8FC01208383E290E024E0FC0171
:0801A0002083FFCFF894FFCF8C
:00000001FF
