:100000000C9446000C9466000C9466000C946600F8
:100010000C9466000C9466000C9466000C946600C8
:100020000C9466000C9466000C9466000C946600B8
:100030000C9466000C9466000C9466000C946600A8
:100040000C9466000C9466000C9466000C94660098
:100050000C9466000C9466000C9466000C94660088
:100060000C9466000C9466000C9466000C94660078
:100070000C9466000C9466000C9466000C94660068
:100080000C9466000C9466000C94660011241FBE4C
:10009000CFEFD0E1DEBFCDBF11E0A0E0B1E0E4EEF4
:1000A000F1E000E00BBF02C007900D92A030B10755
:1000B000D9F71BBE11E0A0E0B1E001C01D92A03055
:1000C000B107E1F70E9468000C94F0000C94000066
:1000D000CF93DF9300D000D0CDB7DEB71A8219825C
:1000E0001C821B8282E290E024E0FC01208387E3F3
:1000F00090E021E0FC01208383E590E026E0FC0114
:10010000208385E490E024E0FC01208382E590E0F8
:1001100021EEFC01208384E490E021EEFC012083A9
:1001200001C0000086E590E0FC018081882F90E00E
:1001300080749070009729F189819A8101969A8341
:10014000898389819A81883C910561F483E290E0FA
:1001500023E230E0F901308124E02327FC012083F1
:100160001A82198284E490E021EEFC01208386E566
:1001700090E026E530E0F90120812064FC01208335
:10018000D0CF86E590E0FC018081882F90E08170DF
:100190009070882331F28B819C8101969C838B83A4
:1001A0008B819C818436910561F488E390E028E39B
:1001B00030E0F901308121E02327FC0120831C82FB
:1001C0001B8282E590E021EEFC01208386E590E031
:1001D00026E530E0F90120812160FC012083A1CFD8
:0401E000F894FFCFC1
:00000001FF
