:100000000C9446000C9466000C9466000C946600F8
:100010000C9466000C9468000C9466000C946600C6
:100020000C9466000C9466000C9466000C946600B8
:100030000C9466000C9466000C9466000C946600A8
:100040000C9466000C9466000C9466000C94660098
:100050000C9466000C9466000C9466000C94660088
:100060000C9466000C9466000C9466000C94660078
:100070000C9466000C9466000C9466000C94660068
:100080000C9466000C9466000C94660011241FBE4C
:10009000CFEFD0E1DEBFCDBF11E0A0E0B1E0E8E6F8
:1000A000F1E000E00BBF02C007900D92A030B10755
:1000B000D9F71BBE11E0A0E0B1E001C01D92A03055
:1000C000B107E1F70E948D000C94B2000C9400007F
:1000D0001F920F920FB60F9200905B000F921124A7
:1000E0002F938F939F93EF93FF93CF93DF93CDB78E
:1000F000DEB788E390E02FEFFC012083DF91CF9102
:10010000FF91EF919F918F912F910F9000925B0043
:100110000F900FBE0F901F901895CF93DF93CDB720
:10012000DEB782E290E0FC01108287E390E02FEFDF
:10013000FC01208388E590E020E8FC01208389E52C
:1001400090E020E1FC0120838FE590E020E8FC01B5
:1001500020838AE590E0FC01108288E390E0FC01B6
:080160001082FBCFF894FFCFE1
:00000001FF
