:100000000C94C7000C94E7000C94E7000C94E700F4
:100010000C94E7000C94E7000C94E7000C94E700C4
:100020000C94E7000C94E7000C94E7000C94E700B4
:100030000C94E7000C94E7000C94E7000C94E700A4
:100040000C94E7000C94E7000C94E7000C94E70094
:100050000C94E7000C94E7000C94E7000C94E70084
:100060000C94E7000C94E7000C94E7000C94E70074
:100070000C94E7000C94E7000C94E7000C94E70064
:100080000C94E7000C94E7000C94E7006E616E009E
:10009000696E660000407A10F35A00A0724E18098B
:1000A0000010A5D4E80000E87648170000E40B54DF
:1000B000020000CA9A3B000000E1F50500008096AE
:1000C0009800000040420F000000A08601000000E0
:1000D000102700000000E80300000000640000009A
:1000E00000000A00000000000100000000002C7663
:1000F000D888DC674F0823DFC1DFAE59E1B1B7967E
:10010000E5E3E453C63AE651997696E8E6C28426DA
:10011000EB898C9B62ED407C6FFCEFBC9C9F40F2B6
:10012000BAA56FA5F490055A2AF75C936B6CF96732
:100130006DC11BFCE0E40D47FEF520E6B500D0EDF7
:10014000902E0300943577050080841E080000205F
:100150004E0A000000C80C333333330F986E1283FD
:100160001141EF8D2114893BE65516CFFEE6DB18D1
:10017000D1844B381BF77C1D901DA4BBE424203296
:1001800084725E228100C9F124ECA1E53D2711248F
:100190001FBECFEFD0E1DEBFCDBF11E0A0E0B1E0E8
:1001A000E6E6F1E200E00BBF02C007900D92AE3030
:1001B000B107D9F71BBE11E0AEE0B1E001C01D925E
:1001C000AE30B107E1F70E94FF070C94B1100C9418
:1001D00000000F931F93CF93DF93CDB7DEB72E9719
:1001E0000FB6F894DEBF0FBECDBF80E090E0A8E46C
:1001F000B2E489839A83AB83BC8369817A818B81E2
:100200009C8120E030E04AEF54E40E94A70EDC011C
:10021000CB018D839E83AF83B88711E06D817E8192
:100220008F81988520E030E040E85FE30E94590D1F
:1002300088230CF010E0112329F081E090E09A87E8
:10024000898746C011E06D817E818F81988520E08D
:100250003FEF4FE757E40E94A30E18160CF010E092
:10026000112361F169817A818B819C8120E030E0EA
:1002700040E251E40E94A70EDC01CB01BC01CD019C
:100280000E94C50DDC01CB019A87898712C088ECDA
:1002900090E09C878B878B859C858C01C80101979A
:1002A000F1F78C011C870B8789859A8501979A87BE
:1002B000898789859A85009751F717C06D817E815E
:1002C0008F8198850E94C50DDC01CB019A878987B3
:1002D00089859A859E878D878D859E858C01C8012D
:1002E0000197F1F78C011E870D872E960FB6F894B3
:1002F000DEBF0FBECDBFDF91CF911F910F9108954B
:100300000F931F93CF93DF93CDB7DEB769970FB6E7
:10031000F894DEBF0FBECDBF898F0E94E9008BE34A
:1003200090E0298DFC01208385E390E025E330E017
:10033000F90120812670FC01208385E390E025E30C
:1003400030E0F90120812570FC01208385E390E0F5
:1003500025E330E0F90120812460FC01208385E35E
:1003600090E025E330E0F90120812370FC01208337
:1003700080E090E0A0E8BFE389839A83AB83BC83ED
:1003800069817A818B819C812BEA3AEA4AE250E4C6
:100390000E94A70EDC01CB018D839E83AF83B887BB
:1003A00011E06D817E818F81988520E030E040E80A
:1003B0005FE30E94590D88230CF010E0112319F01F
:1003C00081E08987A3C011E06D817E818F8198854E
:1003D00020E030E04FE753E40E94A30E18160CF023
:1003E00010E0112309F489C069817A818B819C8195
:1003F00020E030E04AE754E40E945D0DDC01CB01CF
:100400008A879B87AC87BD876A857B858C859D8520
:1004100020E030E04AEF54E40E94A70EDC01CB015B
:100420008E879F87A88BB98B11E06E857F85888921
:10043000998920E030E040E85FE30E94590D88236D
:100440000CF010E0112329F081E090E09B8B8A8B67
:1004500046C011E06E857F858889998920E03FEF4D
:100460004FE757E40E94A30E18160CF010E011237A
:1004700061F16A857B858C859D8520E030E040E2D6
:1004800051E40E94A70EDC01CB01BC01CD010E940A
:10049000C50DDC01CB019B8B8A8B12C088EC90E0F0
:1004A0009D8B8C8B8C899D898C01C8010197F1F7FC
:1004B0008C011D8B0C8B8A899B8901979B8B8A8B66
:1004C0008A899B89009751F728C06E857F85888926
:1004D00099890E94C50DDC01CB019B8B8A8B8A898F
:1004E0009B899F8B8E8B8E899F898C01F801319718
:1004F000F1F78F011F8B0E8B10C06D817E818F8174
:1005000098850E94C50DDC01CB0189878985888F7C
:10051000888D182F1A95F1F7188F69960FB6F894F1
:10052000DEBF0FBECDBFDF91CF911F910F91089518
:100530000F931F93CF93DF93CDB7DEB7EE970FB630
:10054000F894DEBF0FBECDBF8AE390E02FEFFC0131
:10055000208384E390E024E330E0F90120812F60E0
:10056000FC01208380E090E0A0E7B1E489839A83D6
:10057000AB83BC8369817A818B819C8120E030E0F0
:100580004AEF54E40E94A70EDC01CB018D839E83C9
:10059000AF83B88711E06D817E818F81988520E0DF
:1005A00030E040E85FE30E94590D88230CF010E032
:1005B000112329F081E090E09A87898746C011E0F5
:1005C0006D817E818F81988520E03FEF4FE757E472
:1005D0000E94A30E18160CF010E0112361F169813E
:1005E0007A818B819C8120E030E040E251E40E94DE
:1005F000A70EDC01CB01BC01CD010E94C50DDC01C1
:10060000CB019A87898712C088EC90E09C878B8702
:100610008B859C858C01C8010197F1F78C011C87A3
:100620000B8789859A8501979A87898789859A8515
:10063000009751F717C06D817E818F8198850E9448
:10064000C50DDC01CB019A87898789859A859E87AC
:100650008D878D859E858C01F8013197F1F78F018B
:100660001E870D878BE390E020E3FC01208385E368
:1006700090E0FC01808185E390E0FC01108280E045
:1006800090E2A0E8B5E48F87988BA98BBA8B6F8531
:10069000788989899A892BEA3AEA4AE250E40E94E9
:1006A000A70EDC01CB018B8B9C8BAD8BBE8B11E03D
:1006B0006B897C898D899E8920E030E040E85FE38A
:1006C0000E94590D88230CF010E0112319F081E0ED
:1006D0008F8BA3C011E06B897C898D899E8920E076
:1006E00030E04FE753E40E94A30E18160CF010E020
:1006F000112309F489C06F85788989899A8920E056
:1007000030E04AE754E40E945D0DDC01CB01888FA4
:10071000998FAA8FBB8F688D798D8A8D9B8D20E0F4
:1007200030E04AEF54E40E94A70EDC01CB018C8F2D
:100730009D8FAE8FBF8F11E06C8D7D8D8E8D9F8DC7
:1007400020E030E040E85FE30E94590D88230CF080
:1007500010E0112329F081E090E099A388A346C01E
:1007600011E06C8D7D8D8E8D9F8D20E03FEF4FE7EA
:1007700057E40E94A30E18160CF010E0112361F14B
:10078000688D798D8A8D9B8D20E030E040E251E4C8
:100790000E94A70EDC01CB01BC01CD010E94C50D5A
:1007A000DC01CB0199A388A312C088EC90E09BA345
:1007B0008AA38AA19BA18C01C8010197F1F78C0142
:1007C0001BA30AA388A199A1019799A388A388A133
:1007D00099A1009751F728C06C8D7D8D8E8D9F8DCE
:1007E0000E94C50DDC01CB0199A388A388A199A122
:1007F0009DA38CA38CA19DA18C01F8013197F1F7E9
:100800008F011DA30CA310C06B897C898D899E89E3
:100810000E94C50DDC01CB018F8B8F898EA38EA129
:10082000182F1A95F1F71EA385E390E0FC01808153
:1008300085E390E0FC01108280E090E0A8ECB2E457
:100840008FA398A7A9A7BAA76FA178A589A59AA5EC
:100850002BEA3AEA4AE250E40E94A70EDC01CB01FF
:100860008BA79CA7ADA7BEA711E06BA57CA58DA506
:100870009EA520E030E040E85FE30E94590D882308
:100880000CF010E0112319F081E08FA7A3C011E054
:100890006BA57CA58DA59EA520E030E04FE753E435
:1008A0000E94A30E18160CF010E0112309F489C061
:1008B0006FA178A589A59AA520E030E04AE754E425
:1008C0000E945D0DDC01CB0188AB99ABAAABBBAB41
:1008D00068A979A98AA99BA920E030E04AEF54E4ED
:1008E0000E94A70EDC01CB018CAB9DABAEABBFABC6
:1008F00011E06CA97DA98EA99FA920E030E040E815
:100900005FE30E94590D88230CF010E0112329F0B9
:1009100081E090E099AF88AF46C011E06CA97DA955
:100920008EA99FA920E03FEF4FE757E40E94A30E56
:1009300018160CF010E0112361F168A979A98AA9B1
:100940009BA920E030E040E251E40E94A70EDC01C8
:10095000CB01BC01CD010E94C50DDC01CB0199AFDB
:1009600088AF12C088EC90E09BAF8AAF8AAD9BAD98
:100970008C01C8010197F1F78C011BAF0AAF88AD5C
:1009800099AD019799AF88AF88AD99AD009751F7B0
:1009900028C06CA97DA98EA99FA90E94C50DDC0164
:1009A000CB0199AF88AF88AD99AD9DAF8CAF8CADC1
:1009B0009DAD8C01F8013197F1F78F011DAF0CAFA0
:1009C00010C06BA57CA58DA59EA50E94C50DDC0160
:1009D000CB018FA78FA58EAF8EAD182F1A95F1F78B
:1009E0001EAF85E390E0FC01808185E390E0FC018F
:1009F000108288E30E94800188E00E94800181E0EB
:100A00000E94800186E00E9480018FE00E948001A8
:100A1000EE960FB6F894DEBF0FBECDBFDF91CF913B
:100A20001F910F9108950F931F93CF93DF93CDB72D
:100A3000DEB7E1970FB6F894DEBF0FBECDBF89AB2E
:100A40000E94E90085E390E025E330E0F901208190
:100A50002160FC01208385E390E025E330E0F9018B
:100A600020812570FC01208385E390E025E330E0C0
:100A7000F90120812460FC01208380E090E0A8E45B
:100A8000B2E489839A83AB83BC8369817A818B8149
:100A90009C812BEA3AEA4AE250E40E94A70EDC016C
:100AA000CB018D839E83AF83B88711E06D817E81FA
:100AB0008F81988520E030E040E85FE30E94590D87
:100AC00088230CF010E0112319F081E08987A3C07E
:100AD00011E06D817E818F81988520E030E04FE7C5
:100AE00053E40E94A30E18160CF010E0112309F431
:100AF00089C069817A818B819C8120E030E04AE75E
:100B000054E40E945D0DDC01CB018A879B87AC8792
:100B1000BD876A857B858C859D8520E030E04AEF26
:100B200054E40E94A70EDC01CB018E879F87A88B1F
:100B3000B98B11E06E857F858889998920E030E046
:100B400040E85FE30E94590D88230CF010E0112368
:100B500029F081E090E09B8B8A8B46C011E06E8586
:100B60007F858889998920E03FEF4FE757E40E940D
:100B7000A30E18160CF010E0112361F16A857B8535
:100B80008C859D8520E030E040E251E40E94A70E74
:100B9000DC01CB01BC01CD010E94C50DDC01CB0104
:100BA0009B8B8A8B12C088EC90E09D8B8C8B8C8900
:100BB0009D898C01C8010197F1F78C011D8B0C8B6D
:100BC0008A899B8901979B8B8A8B8A899B8900974D
:100BD00051F728C06E857F85888999890E94C50D47
:100BE000DC01CB019B8B8A8B8A899B899F8B8E8BA7
:100BF0008E899F898C01F8013197F1F78F011F8B46
:100C00000E8B10C06D817E818F8198850E94C50DED
:100C1000DC01CB0189878985888F888D182F1A95EB
:100C2000F1F7188F8BE390E029A9FC01208380E085
:100C300090E0A8E4B2E4898F9A8FAB8FBC8F698D66
:100C40007A8D8B8D9C8D2BEA3AEA4AE250E40E9421
:100C5000A70EDC01CB018D8F9E8FAF8FB8A311E063
:100C60006D8D7E8D8F8D98A120E030E040E85FE3B0
:100C70000E94590D88230CF010E0112319F081E037
:100C800089A3A3C011E06D8D7E8D8F8D98A120E08A
:100C900030E04FE753E40E94A30E18160CF010E06A
:100CA000112309F489C0698D7A8D8B8D9C8D20E08C
:100CB00030E04AE754E40E945D0DDC01CB018AA3D9
:100CC0009BA3ACA3BDA36AA17BA18CA19DA120E0A5
:100CD00030E04AEF54E40E94A70EDC01CB018EA362
:100CE0009FA3A8A7B9A711E06EA17FA188A599A588
:100CF00020E030E040E85FE30E94590D88230CF0CB
:100D000010E0112329F081E090E09BA78AA746C05C
:100D100011E06EA17FA188A599A520E03FEF4FE7E4
:100D200057E40E94A30E18160CF010E0112361F195
:100D30006AA17BA18CA19DA120E030E040E251E4BA
:100D40000E94A70EDC01CB01BC01CD010E94C50DA4
:100D5000DC01CB019BA78AA712C088EC90E09DA77D
:100D60008CA78CA59DA58C01C8010197F1F78C017A
:100D70001DA70CA78AA59BA501979BA78AA78AA553
:100D80009BA5009751F728C06EA17FA188A599A5C2
:100D90000E94C50DDC01CB019BA78AA78AA59BA554
:100DA0009FA78EA78EA59FA58C01F8013197F1F71B
:100DB0008F011FA70EA710C06D8D7E8D8F8D98A1FE
:100DC0000E94C50DDC01CB0189A389A188AB88A94C
:100DD000182F1A95F1F718AB85E390E025E330E082
:100DE000F90120812370FC012083E1960FB6F8946D
:100DF000DEBF0FBECDBFDF91CF911F910F91089540
:100E0000CF93DF9300D000D0CDB7DEB79C838B8328
:100E10001A82198289819A812B813C81820F931FCA
:100E2000FC018081882389F089819A812B813C8112
:100E3000820F931FFC01208189819A8101969A83F8
:100E40008983822F0E941305E5CF00000F900F9039
:100E50000F900F90DF91CF910895CF93DF93CDB78F
:100E6000DEB781E00E948001DF91CF910895CF939A
:100E7000DF93CDB7DEB782E00E948001DF91CF9192
:100E80000895CF93DF9300D000D00F92CDB7DEB797
:100E90009B838A837D836C8384E089838A819B81A1
:100EA0008130910519F48981826089838C819D81CB
:100EB0008130910519F489818160898389810E943B
:100EC00080010F900F900F900F900F90DF91CF91B6
:100ED0000895CF93DF93CDB7DEB728970FB6F89478
:100EE000DEBF0FBECDBF9C838B837E836D8358870F
:100EF0004F8388E090E09A8389838B819C81813045
:100F0000910529F489819A8184609A8389838D81EE
:100F10009E818130910529F489819A8182609A832A
:100F200089838F8198858130910529F489819A81FF
:100F300081609A83898389810E94800128960FB6F7
:100F4000F894DEBF0FBECDBFDF91CF910895CF9350
:100F5000DF9300D000D000D0CDB7DEB79C838B8369
:100F60007E836D8380E190E09A8389838B819C816D
:100F70008130910529F489819A8188609A838983D7
:100F80008D819E818130910529F489819A818460C7
:100F90009A83898389810E94800126960FB6F894EE
:100FA000DEBF0FBECDBFDF91CF910895CF93DF930A
:100FB00000D000D0CDB7DEB78B836C838B81882FB8
:100FC00090E001979C01002436952795079436956B
:100FD00027950794322F202D8C81882F90E0019740
:100FE000820F931F80689A83898389810E94800180
:100FF0000F900F900F900F90DF91CF9108950F9366
:101000001F93CF93DF93CDB7DEB7E6970FB6F89473
:10101000DEBF0FBECDBF80E090E0A0EAB0E48983E0
:101020009A83AB83BC830E94980281E690E021E61C
:1010300030E0F90120812E7FFC01208387E290E0DF
:10104000FC01108286E290E027E8FC01208380E02A
:1010500090E0A0EAB0E48B879C87AD87BE876B8564
:101060007C858D859E8520E030E04AEF54E40E9427
:10107000A70EDC01CB018F87988BA98BBA8B11E06F
:101080006F85788989899A8920E030E040E85FE3BC
:101090000E94590D88230CF010E0112329F081E003
:1010A00090E09C8B8B8B46C011E06F857889898995
:1010B0009A8920E03FEF4FE757E40E94A30E1816ED
:1010C0000CF010E0112361F16B857C858D859E8588
:1010D00020E030E040E251E40E94A70EDC01CB01A9
:1010E000BC01CD010E94C50DDC01CB019C8B8B8B1B
:1010F00012C088EC90E09E8B8D8B8D899E898C012F
:10110000C8010197F1F78C011E8B0D8B8B899C898F
:1011100001979C8B8B8B8B899C89009751F717C00B
:101120006F85788989899A890E94C50DDC01CB0178
:101130009C8B8B8B8B899C89988F8F8B8F89988DBB
:101140008C01F8013197F1F78F01188F0F8B86E230
:1011500090E026E230E0F90120812064FC01208348
:10116000000086E290E0FC018081882F90E0807191
:1011700090700097B1F384E290E0FC018081282F09
:1011800030E085E290E0FC018081882F90E0982F8C
:101190008827820F931F9E838D838D819E81AA272E
:1011A00097FDA095BA2FBC01CD010E94F30DDC0183
:1011B000CB01BC01CD0129813A814B815C810E9428
:1011C000A70EDC01CB01BC01CD0120E030EC4FE7E4
:1011D00054E40E945D0DDC01CB018F839887A987C1
:1011E000BA8781E061E00E94D6078DB79EB7089765
:1011F0000FB6F8949EBF0FBE8DBF2DB73EB72F5FC1
:101200003F4FCE018796F9019183808380E091E082
:10121000F901938382838F819885A985BA85F90125
:1012200084839583A683B7830E9424108DB79EB7CD
:1012300008960FB6F8949EBF0FBE8DBFCE0187965D
:101240000E94000780E090E0AAE7B4E4898F9A8FBB
:10125000AB8FBC8F698D7A8D8B8D9C8D20E030E0BB
:101260004AEF54E40E94A70EDC01CB018D8F9E8FC4
:10127000AF8FB8A311E06D8D7E8D8F8D98A120E08A
:1012800030E040E85FE30E94590D88230CF010E045
:10129000112329F081E090E09AA389A346C011E0D0
:1012A0006D8D7E8D8F8D98A120E03FEF4FE757E445
:1012B0000E94A30E18160CF010E0112361F1698D45
:1012C0007A8D8B8D9C8D20E030E040E251E40E94CD
:1012D000A70EDC01CB01BC01CD010E94C50DDC01D4
:1012E000CB019AA389A312C088EC90E09CA38BA3A6
:1012F0008BA19CA18C01F8013197F1F78F011CA300
:101300000BA389A19AA101979AA389A389A19AA164
:10131000009751F718C06D8D7E8D8F8D98A10E941A
:10132000C50DDC01CB019AA389A389A19AA19EA333
:101330008DA38DA19EA18C01C8010197F1F78C01AD
:101340001EA30DA304CF03CF2F923F924F925F9223
:101350006F927F928F929F92AF92BF92CF92DF92C5
:10136000EF92FF920F931F93CF93DF93CDB7DEB72A
:1013700065970FB6F894DEBF0FBECDBF4C017F87D7
:101380006E87FC0117821682838181FD04C076C3BB
:101390004C855D8504C01E010894211C311CF4019C
:1013A0009381EE85FF8593FD859193FF8191FF8762
:1013B000EE87882309F45EC3853241F493FD85915D
:1013C00093FF8191FF87EE87853259F490E0B40155
:1013D0004C8B5D8B0E94F80F4C895D895D874C8733
:1013E000D7CFFF24DD2410E01032B0F48B3269F047
:1013F0008C3228F4803251F0833271F40BC08D327C
:1014000039F0803349F411602CC01260146029C097
:10141000186027C0106125C017FD2EC0282F20534B
:101420002A3098F416FF08C08F2D880FF82EFF0C75
:10143000FF0CF80EF20E15C08D2D880FD82EDD0C86
:10144000DD0CD80ED20E10620CC08E3221F416FDC7
:1014500011C3106406C08C3611F4106802C08836BF
:1014600059F4EE85FF8593FD859193FF8191FF8768
:10147000EE87882309F0B8CF982F9554933018F44D
:101480001061805E06C0982F9556933008F0A2C177
:101490001F7E16FD02C0E6E0FE2E1F73853611F496
:1014A000106406C0863611F4106802C0F110FA9478
:1014B00017FF07C0FBE3FF1548F0EF2CE39427E08C
:1014C0000DC027E02F1530F02F2D07C027E07CE35B
:1014D000E72E04C027E067E0F62EEE24CA0104964A
:1014E0009D878C87FA016081718182819381A1013E
:1014F0000E2D0E940A0F5C01C9802C2D30E0398B23
:10150000288BC0FE03C0388933FF06C011FD06C01A
:1015100012FF06C000E205C00DE203C00BE201C0ED
:1015200000E0888999898C709070009709F43CC01C
:10153000002311F084E001C083E08D1558F4D81A1F
:1015400013FD09C080E290E0B4010E94F80FDA9424
:10155000C9F701C0DD24002329F0802F90E0B401F9
:101560000E94F80F888983FD05C030E9E32E30E042
:10157000F32E11C02CE8E22E20E0F22E0CC0011553
:10158000110509F0805290E0B4010E94F80F089410
:10159000E11CF11C04C0012F10E000711070F70174
:1015A0008491882361F763C217FF0EC0EA0CF889A3
:1015B000F4FF04C08A81813309F4EA941E144CF5C7
:1015C00028E02E1548F12CC016FD2AC08F2D90E082
:1015D0008A159B0544F03CEFA3163FEFB3061CF0C1
:1015E000106801C0FA94FF2049F0E2E0F0E0EC0F4F
:1015F000FD1FEF0DF11D80818033A1F317FF10C097
:10160000EF2CE3948F2D90E0A816B90644F4FA1855
:1016100007C0EE24E39404C098E0E92E01C0FF2443
:1016200017FF07C01A141B043CF495012F5F3F4FAE
:1016300005C025E030E002C021E030E0002311F0D9
:101640002F5F3F4FFF2029F08F2D90E00196280F4C
:10165000391F8D2D90E02817390714F4D21A01C0D4
:10166000DD24612E7724C30189709070009749F4BE
:1016700006C080E290E0B4010E94F80FDA94DD2009
:10168000C1F7002329F0802F90E0B4010E94F80FE9
:1016900063FC09C006C080E390E0B4010E94F80F2B
:1016A000DA94DD20C1F717FF48C08501B7FE02C0FC
:1016B00000E010E06624772495012E1931093B8B58
:1016C0002A8B2501401A510A420C531C6F2D70E0E1
:1016D000EE24FF24E61AF70A3FEF0F3F130729F421
:1016E0008EE290E0B4010E94F80FA016B10654F00B
:1016F0002A893B89201731072CF4F201E60DF71DEA
:10170000818101C080E3015010400894611C711C6C
:101710000E151F052CF090E0B4010E94F80FDCCFED
:101720000A151B0541F49A81963320F4953319F478
:10173000388934FF81E390E049C08A81813311F018
:101740009FEEC92290E0B4010E94F80FFF2089F0BB
:101750008EE290E0B4010E94F80F12E0F101E10F77
:10176000F11D1F5F808190E0B4010E94F80FFA9490
:10177000A9F764FE03C085E490E002C085E690E02E
:10178000B4010E94F80FB7FC05C0A114B10441F4E4
:10179000C4FE06C0B094A194B108B3948DE201C018
:1017A0008BE290E0B4010E94F80F80E305C08F5FE8
:1017B000E6EFFFEFAE0EBF1EFAE0AF16B104BCF7C6
:1017C00090E0B4010E94F80FC501C096B4010E94D8
:1017D000F80F4DC1833631F0833789F0833509F036
:1017E00059C022C09A012E5F3F4F3D872C87FA01D6
:1017F0008081898381E0E82EF12C510113C09A0188
:101800002E5F3F4F3D872C87FA01A080B18016FFE5
:1018100003C06F2D70E002C06FEF7FEFC5010E9423
:10182000ED0F7C011F7714C09A012E5F3F4F3D875B
:101830002C87FA01A080B18016FF03C06F2D70E0E5
:1018400002C06FEF7FEFC5010E94E20F7C011068BC
:1018500013FD1CC006C080E290E0B4010E94F80FA6
:10186000DA948D2D90E0E816F906A8F30FC0F50183
:1018700017FD859117FF81915F0190E0B4010E94EF
:10188000F80FD110DA940894E108F108E114F1049A
:1018900071F7EDC0843611F0893671F59A0117FFA2
:1018A0000AC02C5F3F4F3D872C87FA0180819181D0
:1018B000A281B3810BC02E5F3F4F3D872C87FA0179
:1018C00080819181AA2797FDA095BA2F012F0F76CD
:1018D000B7FF08C0B095A095909581959F4FAF4FE9
:1018E000BF4F0068BC01CD01A1012AE030E00E9499
:1018F0005310E82EE21841C0853721F41F7E2AE0FC
:1019000030E020C0197F8F36A9F0803720F4883569
:1019100009F0B0C00BC0803721F0883709F0AAC0A9
:1019200001C0106114FF09C0146007C014FF08C093
:10193000166006C028E030E005C020E130E002C0BB
:1019400020E132E0CA0117FF09C004969D878C8709
:10195000FA01608171818281938108C002969D871E
:101960008C87FA016081718180E090E0A1010E9482
:101970005310E82EE218012F0F7706FF09C00E7FE3
:10198000EF1430F404FF06C002FD04C00F7E02C055
:101990001E2D01C01F2D802F90E004FF0CC0FE0102
:1019A000EE0DF11D2081203311F4097E09C002FFE4
:1019B00006C01E5F05C086789070009709F01F5F13
:1019C000A02EBB2403FD12C000FF0DC0FE2C1D1570
:1019D00050F4FD0CF11A1D2D06C080E290E0B40118
:1019E0000E94F80F1F5F1D15C0F304C01D1510F4F1
:1019F000D11A01C0DD24A4FE0FC080E390E0B40141
:101A00000E94F80FA2FE1FC0A1FE03C088E590E06F
:101A100010C088E790E00DC0C501867890700097EF
:101A200091F0A1FC02C080E201C08BE207FD8DE2D3
:101A300090E0B4010E94F80F06C080E390E0B4018A
:101A40000E94F80FFA94EF14C0F3EA94F101EE0D3E
:101A5000F11D808190E0B4010E94F80FEE20A9F7FB
:101A600006C080E290E0B4010E94F80FDA94DD2015
:101A7000C1F78ECCF4018681978102C08FEF9FEF72
:101A800065960FB6F894DEBF0FBECDBFDF91CF9144
:101A90001F910F91FF90EF90DF90CF90BF90AF908C
:101AA0009F908F907F906F905F904F903F902F907E
:101AB0000895D4D008F481E008950CD00AC102D171
:101AC00040F0F9D030F021F45F3F19F0EBC0511134
:101AD00034C1EEC00FD198F39923C9F35523B1F364
:101AE000951B550BBB27AA2762177307840738F08D
:101AF0009F5F5F4F220F331F441FAA1FA9F333D0EC
:101B00000E2E3AF0E0E830D091505040E695001C9F
:101B1000CAF729D0FE2F27D0660F771F881FBB1F5B
:101B2000261737074807AB07B0E809F0BB0B802D35
:101B3000BF01FF2793585F4F2AF09E3F510568F081
:101B4000B1C0FBC05F3FECF3983EDCF38695779520
:101B50006795B795F7959F5FC9F7880F911D969583
:101B6000879597F90895E1E0660F771F881FBB1FDF
:101B7000621773078407BA0720F0621B730B840B8C
:101B8000BA0BEE1F88F7E0950895BCD088F09F57F8
:101B900090F0B92F9927B751A0F0D1F0660F771FB9
:101BA000881F991F1AF0BA95C9F712C0B13081F099
:101BB000C3D0B1E00895C0C0672F782F8827B85FE1
:101BC00039F0B93FCCF3869577956795B395D9F7FA
:101BD0003EF490958095709561957F4F8F4F9F4F04
:101BE0000895E89409C097FB3EF490958095709510
:101BF00061957F4F8F4F9F4F9923A9F0F92F96E959
:101C0000BB279395F695879577956795B795F111CD
:101C1000F8CFFAF4BB0F11F460FF1BC06F5F7F4F6A
:101C20008F4F9F4F16C0882311F096E911C077237C
:101C300021F09EE8872F762F05C0662371F096E885
:101C4000862F70E060E02AF09A95660F771F881F54
:101C5000DAF7880F9695879597F90895990F0008F8
:101C6000550FAA0BE0E8FEEF16161706E807F9076E
:101C7000C0F012161306E407F50798F0621B730B09
:101C8000840B950B39F40A2661F0232B242B252B8A
:101C900021F408950A2609F4A140A6958FEF811D2D
:101CA000811D089597F99F6780E870E060E00895CE
:101CB0009FEF80EC089500240A9416161706180664
:101CC0000906089500240A94121613061406050640
:101CD0000895092E0394000C11F4882352F0BB0FD1
:101CE00040F4BF2B11F460FF04C06F5F7F4F8F4F34
:101CF0009F4F089557FD9058440F551F59F05F3F6F
:101D000071F04795880F97FB991F61F09F3F79F01D
:101D100087950895121613061406551FF2CF46959F
:101D2000F1DF08C0161617061806991FF1CF869521
:101D30007105610508940895E894BB276627772705
:101D4000CB0197F908958ADF08F48FEF08950BD03F
:101D5000C0CFB1DF28F0B6DF18F0952309F0A2CF8D
:101D6000A7CF1124EACFC6DFA0F3959FD1F3950F3B
:101D700050E0551F629FF001729FBB27F00DB11D0F
:101D8000639FAA27F00DB11DAA1F649F6627B00D9F
:101D9000A11D661F829F2227B00DA11D621F739F88
:101DA000B00DA11D621F839FA00D611D221F749F96
:101DB0003327A00D611D231F849F600D211D822FDD
:101DC000762F6A2F11249F5750408AF0E1F0882324
:101DD0004AF0EE0FFF1FBB1F661F771F881F915031
:101DE0005040A9F79E3F510570F05CCFA6CF5F3FF2
:101DF000ECF3983EDCF3869577956795B795F79564
:101E0000E7959F5FC1F7FE2B880F911D96958795EB
:101E100097F90895283008F027E03327DA01990F61
:101E2000311D87FD916000966105710539F43260BE
:101E30002E5F3D9330E32A95E1F708959F3F30F000
:101E400080387105610509F03C5F3C5F3D9391303E
:101E500008F08068911DDF93CF931F930F93FF923B
:101E6000EF92192F987F9695E92F96959695E90F01
:101E7000FF27E251FF4F99273327EE24FF24A701C4
:101E8000E70105900894079428F4360FE71EF81E22
:101E9000491F511D660F771F881F991F0694A1F7D0
:101EA0000590079428F4E70EF81E491F561FC11D20
:101EB000770F881F991F661F0694A1F70590079456
:101EC00028F4F80E491F561FC71FD11D880F991FF0
:101ED000661F771F0694A1F70590079420F4490F19
:101EE000561FC71FD81F990F661F771F881F06949C
:101EF000A9F784911095177041F0D695C79557951D
:101F00004795F794E7941A95C1F7E4E9F0E06894EF
:101F10001590159135916591959105907FE2739596
:101F2000E118F10A430B560BC90BD009C0F7E10CBD
:101F3000F11E431F561FC91FD01D7EF4703311F4CC
:101F40008A95E6CFE894015030F0080F0AF4002794
:101F5000021708F4202F2395022F7A3328F079E313
:101F60007D932A95E9F710C07D932A9589F606940A
:101F700097956795379517951794E118F10A430BD4
:101F8000560BC90BD00998F023957E9173957A333F
:101F900008F070E37C932013B8F77E9170617D9315
:101FA00030F0839571E37D9370E32A95E1F7112476
:101FB000EF90FF900F911F91CF91DF91992787FDAF
:101FC00090950895FC010590615070400110D8F77C
:101FD000809590958E0F9F1F0895FC016150704071
:101FE00001900110D8F7809590958E0F9F1F08954E
:101FF0000F931F93CF93DF938C01EB018B8181FFB4
:102000001BC082FF0DC02E813F818C819D812817CE
:10201000390764F4E881F9810193F983E88306C004
:10202000E885F985802F0995009731F48E819F818D
:1020300001969F838E8302C00FEF1FEFC801DF91CF
:10204000CF911F910F9108950F931F93CF93DF931B
:10205000CDB7DEB72E970FB6F894DEBF0FBECDBF5B
:102060000D891E8986E08C831A8309838FEF9FE791
:102070009E838D83AE01475E5F4FCE0101966F89CF
:10208000788D0E94A409EF81F885E00FF11F10827E
:102090002E960FB6F894DEBF0FBECDBFDF91CF9165
:1020A0001F910F910895FA01AA27283051F120318C
:1020B00081F1E8946F936E7F6E5F7F4F8F4F9F4FDC
:1020C000AF4FB1E03ED0B4E03CD0670F781F891F1E
:1020D0009A1FA11D680F791F8A1F911DA11D6A0FEC
:1020E000711D811D911DA11D20D009F468943F919F
:1020F0002AE0269F11243019305D3193DEF6CF019E
:102100000895462F4770405D4193B3E00FD0C9F763
:10211000F6CF462F4F70405D4A3318F0495D31FDD0
:102120004052419302D0A9F7EACFB4E0A695979523
:10213000879577956795BA95C9F7009761057105F9
:1021400008959B01AC010A2E069457954795379543
:102150002795BA95C9F7620F731F841F951FA01D9D
:062160000895F894FFCF82
:0E216600414443203D20252E32665B565D002D
:00000001FF
