:100000000C9446000C9466000C9466000C946600F8
:100010000C9466000C9490040C9466000C9466009A
:100020000C9466000C9466000C9466000C946600B8
:100030000C9466000C9466000C9466000C946600A8
:100040000C9466000C9466000C9466000C94660098
:100050000C9466000C9466000C9466000C94660088
:100060000C9466000C9466000C9466000C94660078
:100070000C9466000C9466000C9466000C94660068
:100080000C9466000C9466000C94660011241FBE4C
:10009000CFEFD0E1DEBFCDBF11E0A0E0B1E0E8E3FB
:1000A000F9E100E00BBF02C007900D92AE31B1073D
:1000B000D9F71BBE11E0AEE1B1E001C01D92AE3137
:1000C000B107E1F70E942B060C949A0C0C940000E7
:1000D0000F931F93CF93DF93CDB7DEB72E970FB655
:1000E000F894DEBF0FBECDBF80E090E0A8E4B2E49C
:1000F00089839A83AB83BC8369817A818B819C815C
:1001000020E030E04AEF54E40E943608DC01CB01E5
:100110008D839E83AF83B88711E06D817E818F814F
:10012000988520E030E040E85FE30E94440A88239D
:100130000CF010E0112329F081E090E09A87898784
:1001400046C011E06D817E818F81988520E03FEF70
:100150004FE757E40E94E20918160CF010E0112353
:1001600061F169817A818B819C8120E030E040E2FD
:1001700051E40E943608DC01CB01BC01CD010E9494
:100180004906DC01CB019A87898712C088EC90E090
:100190009C878B878B859C858C01C8010197F1F723
:1001A0008C011C870B8789859A8501979A87898797
:1001B00089859A85009751F717C06D817E818F815F
:1001C00098850E944906DC01CB019A878987898539
:1001D0009A859E878D878D859E858C01C8010197A4
:1001E000F1F78C011E870D872E960FB6F894DEBFAF
:1001F0000FBECDBFDF91CF911F910F9108950F9347
:100200001F93CF93DF93CDB7DEB769970FB6F894FE
:10021000DEBF0FBECDBF898F0E9468008BE390E0E8
:10022000298DFC01208388E390E024E0FC012083F9
:1002300088E390E0FC01108280E090E0A0E8BFE35A
:1002400089839A83AB83BC8369817A818B819C810A
:100250002BEA3AEA4AE250E40E943608DC01CB017C
:100260008D839E83AF83B88711E06D817E818F81FE
:10027000988520E030E040E85FE30E94440A88234C
:100280000CF010E0112319F081E08987A3C011E080
:100290006D817E818F81988520E030E04FE753E4C7
:1002A0000E94E20918160CF010E0112309F489C02D
:1002B00069817A818B819C8120E030E04AE754E4B7
:1002C0000E943709DC01CB018A879B87AC87BD87F9
:1002D0006A857B858C859D8520E030E04AEF54E47B
:1002E0000E943608DC01CB018E879F87A88BB98BD3
:1002F00011E06E857F858889998920E030E040E8AB
:100300005FE30E94440A88230CF010E0112329F0D7
:1003100081E090E09B8B8A8B46C011E06E857F85E3
:100320008889998920E03FEF4FE757E40E94E2096E
:1003300018160CF010E0112361F16A857B858C851D
:100340009D8520E030E040E251E40E943608DC0167
:10035000CB01BC01CD010E944906DC01CB019B8B86
:100360008A8B12C088EC90E09D8B8C8B8C899D8948
:100370008C01C8010197F1F78C011D8B0C8B8A89C8
:100380009B8901979B8B8A8B8A899B89009751F760
:1003900028C06E857F85888999890E944906DC017D
:1003A000CB019B8B8A8B8A899B899F8B8E8B8E89B5
:1003B0009F898C01F8013197F1F78F011F8B0E8B0C
:1003C00010C06D817E818F8198850E944906DC0175
:1003D000CB0189878985888F888D182F1A95F1F729
:1003E000188F69960FB6F894DEBF0FBECDBFDF91B0
:1003F000CF911F910F910895CF93DF93CDB7DEB7C3
:100400008AE390E02FEFFC01208387E390E02FEF59
:10041000FC01208388E30E94FF0088E00E94FF0027
:1004200081E00E94FF0086E00E94FF008FE00E94B2
:10043000FF00DF91CF9108950F931F93CF93DF9328
:10044000CDB7DEB769970FB6F894DEBF0FBECDBF4C
:10045000898F0E9468008BE390E0298DFC01208346
:1004600088E390E025E0FC01208388E390E021E030
:10047000FC01208380E090E0A8E4B2E489839A83C1
:10048000AB83BC8369817A818B819C812BEA3AEAB8
:100490004AE250E40E943608DC01CB018D839E8342
:1004A000AF83B88711E06D817E818F81988520E0D0
:1004B00030E040E85FE30E94440A88230CF010E03B
:1004C000112319F081E08987A3C011E06D817E813D
:1004D0008F81988520E030E04FE753E40E94E209E5
:1004E00018160CF010E0112309F489C069817A8193
:1004F0008B819C8120E030E04AE754E40E94370978
:10050000DC01CB018A879B87AC87BD876A857B85A9
:100510008C859D8520E030E04AEF54E40E94360847
:10052000DC01CB018E879F87A88BB98B11E06E858C
:100530007F858889998920E030E040E85FE30E9468
:10054000440A88230CF010E0112329F081E090E0A8
:100550009B8B8A8B46C011E06E857F85888999893F
:1005600020E03FEF4FE757E40E94E20918160CF035
:1005700010E0112361F16A857B858C859D8520E0E3
:1005800030E040E251E40E943608DC01CB01BC01BE
:10059000CD010E944906DC01CB019B8B8A8B12C0E6
:1005A00088EC90E09D8B8C8B8C899D898C01C80197
:1005B0000197F1F78C011D8B0C8B8A899B89019720
:1005C0009B8B8A8B8A899B89009751F728C06E85FF
:1005D0007F85888999890E944906DC01CB019B8B24
:1005E0008A8B8A899B899F8B8E8B8E899F898C01B0
:1005F000F8013197F1F78F011F8B0E8B10C06D81C1
:100600007E818F8198850E944906DC01CB01898714
:100610008985888F888D182F1A95F1F7188F69961C
:100620000FB6F894DEBF0FBECDBFDF91CF911F9103
:100630000F910895CF93DF9300D000D0CDB7DEB7F0
:100640009C838B831A82198289819A812B813C81B8
:10065000820F931FFC018081882389F089819A8110
:100660002B813C81820F931FFC01208189819A811B
:1006700001969A838983822F0E941C02E5CF000095
:100680000F900F900F900F90DF91CF910895CF931F
:10069000DF93CDB7DEB781E00E94FF00DF91CF91FD
:1006A0000895CF93DF93CDB7DEB782E00E94FF00BD
:1006B000DF91CF910895CF93DF9300D000D00F92B8
:1006C000CDB7DEB79B838A837D836C8384E0898387
:1006D0008A819B818130910519F4898182608983A7
:1006E0008C819D818130910519F489818160898394
:1006F00089810E94FF000F900F900F900F900F9034
:10070000DF91CF910895CF93DF9300D000D00F9267
:10071000CDB7DEB79B838A837D836C8380E1898339
:100720008A819B818130910519F489818860898350
:100730008C819D818130910519F489818460898340
:1007400089810E94FF000F900F900F900F900F90E3
:10075000DF91CF910895CF93DF9300D00F92CDB763
:10076000DEB78A836B838A81882F90E00197982F68
:100770009295990F990F907C8B81890F8150806899
:10078000898389810E94FF000F900F900F90DF9165
:10079000CF910895CF93DF9300D0CDB7DEB7898393
:1007A0006A8384E790E024EAFC012083000084E768
:1007B00090E0FC0180818823D4F781E790E0FC0180
:1007C0008081882F90E0887F90708830910579F73C
:1007D00083E790E02981220FFC01208384E790E0E9
:1007E00024E8FC012083000084E790E0FC01808184
:1007F0008823D4F781E790E0FC018081882F90E086
:10080000887F90708831910579F783E790E02A819D
:10081000FC01208384E790E024E8FC0120830000B1
:1008200084E790E0FC0180818823D4F781E790E0A1
:10083000FC018081882F90E0887F9070883291053C
:1008400079F784E790E024E9FC0120830F900F9072
:10085000DF91CF910895CF93DF9300D0CDB7DEB76E
:100860008A8384E790E024EAFC012083000084E787
:1008700090E0FC0180818823D4F781E790E0FC01BF
:100880008081882F90E0887F90708830910579F77B
:1008900083E790E02A81222F30E0220F331F21606E
:1008A000FC01208384E790E024E8FC012083000021
:1008B00084E790E0FC0180818823D4F781E790E011
:1008C000FC018081882F90E0887F907080349105B2
:1008D00079F784E790E024E8FC012083000084E7B6
:1008E00090E0FC0180818823D4F781E790E0FC014F
:1008F0008081882F90E0887F90708835910579F706
:1009000083E790E0FC018081898384E790E024E91B
:10091000FC01208389810F900F90DF91CF91089582
:100920001F920F920FB60F9200905B000F9211244E
:100930000F931F932F933F934F935F936F937F93E7
:100940008F939F93AF93BF93EF93FF93CF93DF93D7
:10095000CDB7DEB7E297DEBFCDBFCE014F9620E028
:1009600031E044E1F90100802F5F3F4FFC0100823C
:10097000019641504423B1F781E061E00E94AB034E
:100980001A8219829DC09E01215E3F4F89819A8102
:10099000820F931FFC0190818BE0692F0E94CA0394
:1009A0009E01215E3F4F89819A81820F931FFC0136
:1009B00080810E941C0280E090E0A0E2B1E48B8381
:1009C0009C83AD83BE836B817C818D819E8120E081
:1009D00030E04AEF54E40E943608DC01CB018F83FB
:1009E0009887A987BA8711E06F81788589859A856C
:1009F00020E030E040E85FE30E94440A88230CF0E6
:100A000010E0112329F081E090E09C878B8746C09D
:100A100011E06F81788589859A8520E03FEF4FE767
:100A200057E40E94E20918160CF010E0112361F15E
:100A30006B817C818D819E8120E030E040E251E439
:100A40000E943608DC01CB01BC01CD010E944906A1
:100A5000DC01CB019C878B8712C088EC90E09E87DD
:100A60008D878D859E858C01C8010197F1F78C01DA
:100A70001E870D878B859C8501979C878B878B852F
:100A80009C85009751F717C06F81788589859A8575
:100A90000E944906DC01CB019C878B878B859C8556
:100AA000988B8F878F8598898C01F8013197F1F7A2
:100AB0008F01188B0F8789819A8101969A83898388
:100AC00089819A81843191050CF45DCF82E061E0E7
:100AD0000E94AB031A8219829DC08BE00E942B04F6
:100AE000482F9E01215E3F4F89819A81820F931F7B
:100AF000FC0140839E01215E3F4F89819A81820FD4
:100B0000931FFC0180810E941C0280E090E0A0E223
:100B1000B1E4898B9A8BAB8BBC8B69897A898B8981
:100B20009C8920E030E04AEF54E40E943608DC0162
:100B3000CB018D8B9E8BAF8BB88F11E06D897E8939
:100B40008F89988D20E030E040E85FE30E94440AFE
:100B500088230CF010E0112329F081E090E09A8FB7
:100B6000898F46C011E06D897E898F89988D20E03C
:100B70003FEF4FE757E40E94E20918160CF010E02F
:100B8000112361F169897A898B899C8920E030E0A1
:100B900040E251E40E943608DC01CB01BC01CD01EA
:100BA0000E944906DC01CB019A8F898F12C088EC24
:100BB00090E09C8F8B8F8B8D9C8D8C01C801019751
:100BC000F1F78C011C8F0B8F898D9A8D01979A8F6D
:100BD000898F898D9A8D009751F717C06D897E890D
:100BE0008F89988D0E944906DC01CB019A8F898FED
:100BF000898D9A8D9E8F8D8F8D8D9E8D8C01F801A4
:100C00003197F1F78F011E8F0D8F89819A8101969F
:100C10009A83898389819A81843191050CF45DCF0F
:100C2000E296DEBFCDBFDF91CF91FF91EF91BF91F3
:100C3000AF919F918F917F916F915F914F913F9174
:100C40002F911F910F910F9000925B000F900FBE9C
:100C50000F901F901895CF93DF93CDB7DEB782E248
:100C600090E0FC0110820E94FC0180E790E022E00D
:100C7000FC01208389E590E020E1FC0120838AE5E6
:100C800090E0FC0110828FE590E020E8FC012083D9
:100C9000FFCFCF92DF92EF92FF920F931F936B01E2
:100CA0007C0120E030E040E05FE40E94130A87FD11
:100CB00011C0C701B60120E030E040E05FE40E94CF
:100CC000FE070E94750A8B019C01005010402040D5
:100CD000304806C0C701B6010E94750A8B019C010D
:100CE000B801C9011F910F91FF90EF90DF90CF9055
:100CF0000895A0E0B0E0EFE7F6E00C94650CEC019D
:100D00004B01FA018881823008F43EC1DB019C91DD
:100D1000923008F436C1843059F4943009F034C16B
:100D2000998111968C911197981709F027C12CC1C0
:100D3000943009F426C19230A9F4823009F024C11C
:100D4000CE0128E0DC010D90CD01DA010D92AD015C
:100D50002150C1F7D40111968C9111979981892363
:100D6000818311C1823009F40CC1AA80BB80DB01F0
:100D700012964D915C911397CC80DD80EE80FF80C0
:100D800014960D911D912D913C911797C501841BCF
:100D9000950BDC0197FF04C0AA27BB27A81BB90B42
:100DA000A032B1050CF067C01816190684F52801A9
:100DB00039010A2E04C076946794579447940A9494
:100DC000D2F741E050E060E070E004C0440F551FEE
:100DD000661F771FAA95D2F741505040604070407F
:100DE000402351236223732381E090E0A0E0B0E030
:100DF000411551056105710519F480E090E0DC01B1
:100E00008C019D0104291529262937293FC0009707
:100E1000E9F1AA0EBB1E260137010A2E04C0769402
:100E20006794579447940A94D2F741E050E060E009
:100E300070E004C0440F551F661F771FAA95D2F7B4
:100E400041505040604070404C215D216E217F2117
:100E500081E090E0A0E0B0E0411551056105710529
:100E600019F480E090E0DC016C017D01C428D528F4
:100E7000E628F7280BC04A155B0524F400E010E0D3
:100E8000980104C05A01CC24DD2476018981D40163
:100E900011969C911197891709F445C0882329F070
:100EA0000C191D092E093F0908C0D701C601801B76
:100EB000910BA20BB30B8C019D0137FD04C0118275
:100EC000B382A2820BC081E08183B382A28230957B
:100ED0002095109501951F4F2F4F3F4F0483158389
:100EE000268337830DC0880F991FAA1FBB1F8483D9
:100EF0009583A683B78382819381019793838283AD
:100F000084819581A681B781AC01BD0141505040DB
:100F1000604070404F3F2FEF52072FEF62072FE3E3
:100F2000720708F30BC08183B382A2820C0D1D1DD2
:100F30002E1D3F1D048315832683378383E0808322
:100F4000448155816681778177FF1DC0DB01CA012D
:100F500081709070A070B0707695679557954795A1
:100F6000842B952BA62BB72B84839583A683B783DD
:100F70008281938101969383828305C0C5E1D1E08C
:100F800003C0E40101C0EF01CE01CDB7DEB7E0E15F
:100F90000C94810CA0E2B0E0E0EDF7E00C94730C4F
:100FA000DC01CB018D839E83AF83B88729833A838D
:100FB0004B835C83CE010596BE01675E7F4F0E9426
:100FC0009D0BCE010196BE016F5E7F4F0E949D0B6F
:100FD000CE014996BE016F5E7F4FAE01475F5F4F06
:100FE0000E9479060E94C60A462F572F682F792F34
:100FF000CB01BA01A096E2E00C948F0CA0E2B0E025
:10100000E4E0F8E00C94730CDC01CB018D839E834B
:10101000AF83B88729833A834B835C83CE010596DF
:10102000BE01675E7F4F0E949D0BCE010196BE01FF
:101030006F5E7F4F0E949D0B8A8991E089278A8B82
:10104000CE014996BE016F5E7F4FAE01475F5F4F95
:101050000E9479060E94C60A462F572F682F792FC3
:10106000CB01BA01A096E2E00C948F0CA0E2B0E0B4
:10107000ECE3F8E00C94650CDC01CB018D839E83DE
:10108000AF83B88729833A834B835C83CE0105966F
:10109000BE01675E7F4F0E949D0BCE010196BE018F
:1010A0006F5E7F4F0E949D0B998D923078F08989F9
:1010B0008230C0F0943019F4823041F4CAC08430D8
:1010C00019F4923079F4C5C0923051F481E02A8D40
:1010D0009A89291709F480E08A8FCE014996BBC00E
:1010E000823051F481E02A8D9A89291709F480E031
:1010F0008A8BCE014196AFC04D8C5E8C6F8C78A0F0
:101100000D891E892F89388DE0E2F0E040E050E043
:10111000BA01882499245401CC24DD247601C2012B
:10112000817090700097D1F0C00ED11EE21EF31EA8
:10113000DB01CA01880D991DAA1DBB1D41E050E0CD
:1011400060E070E0C016D106E206F30618F040E059
:1011500050E0BA01480F591F6A1F7B1F880C991C69
:10116000AA1CBB1C37FF08C081E090E0A0E0B0E003
:10117000882A992AAA2ABB2A000F111F221F331F6F
:101180007694679457944794319749F68B8D9C8D4C
:101190002B893C89820F931F02969C878B8781E065
:1011A0002A8D9A89291709F480E08A872B853C8546
:1011B00017C0CA0181709070009761F0F694E794AF
:1011C000D794C79480E090E0A0E0B0E8C82AD92A7C
:1011D000EA2AFB2A76956795579547952F5F3F4FEB
:1011E00077FDE7CFC9010BC0440F551F661F771F5E
:1011F000F7FC4160CC0CDD1CEE1CFF1C019740305D
:10120000A0E05A07A0E06A07A0E47A0768F38B879A
:101210009C87DB01CA018F779070A070B07080341A
:101220009105A105B10561F447FD0AC0C114D104BF
:10123000E104F10429F0405C5F4F6F4F7F4F40782D
:101240004D875E876F87788B83E08987CE0109960B
:1012500002C085E191E00E94C60A462F572F682FF1
:10126000792FCB01BA01A096E0E10C94810CA8E1A2
:10127000B0E0EDE3F9E00C946D0CDC01CB018D8363
:101280009E83AF83B88729833A834B835C83CE01E7
:101290000596BE016F5E7F4F0E949D0BCE010196A9
:1012A000BE01675F7F4F0E949D0B9989923008F4C1
:1012B00075C08985823008F474C02A893A8523274D
:1012C0002A8B943011F0923021F4981709F066C0FF
:1012D0006BC0843039F41D8A1E8A1F8A188E1C8ABE
:1012E0001B8A5CC0823019F484E0898B57C02B893B
:1012F0003C898B859C85281B390B3C8B2B8B8D89DE
:101300009E89AF89B88DCD84DE84EF84F8888C15F2
:101310009D05AE05BF0540F4880F991FAA1FBB1F8E
:10132000215030403C8B2B8BEFE1F0E000E010E0EF
:1013300020E030E440E050E0BA018C159D05AE0598
:10134000BF0540F0402B512B622B732B8C199D094C
:10135000AE09BF093695279517950795880F991FF0
:10136000AA1FBB1F319749F78A019B010F771070A5
:1013700020703070003411052105310559F447FD06
:1013800009C00097A105B10529F0405C5F4F6F4F80
:101390007F4F40784D8B5E8B6F8B788FCE0141965F
:1013A00005C0CE01099602C085E191E00E94C60AFF
:1013B000462F572F682F792FCB01BA016896E8E0A6
:1013C0000C94890CA8E1B0E0E8EEF9E00C94730C01
:1013D000DC01CB018D839E83AF83B88729833A8359
:1013E0004B835C83CE010596BE016F5E7F4F0E94EA
:1013F0009D0BCE010196BE01675F7F4F0E949D0B42
:101400008989823058F08985823040F0CE0141963A
:10141000BE01675F7F4F0E94060C01C08FEF689688
:10142000E2E00C948F0CA8E1B0E0E9E1FAE00C9462
:10143000730CDC01CB018D839E83AF83B887298336
:101440003A834B835C83CE010596BE016F5E7F4F6E
:101450000E949D0BCE010196BE01675F7F4F0E94E7
:101460009D0B8989823058F08985823040F0CE0109
:101470004196BE01675F7F4F0E94060C01C08FEF4F
:101480006896E2E00C948F0CA8E1B0E0EAE4FAE0A0
:101490000C94730CDC01CB018D839E83AF83B887E2
:1014A00029833A834B835C83CE010596BE016F5E30
:1014B0007F4F0E949D0BCE010196BE01675F7F4F5B
:1014C0000E949D0B8989823058F08985823040F0D6
:1014D000CE014196BE01675F7F4F0E94060C01C09E
:1014E00081E06896E2E00C948F0CACE0B0E0EBE7B2
:1014F000FAE00C94710CDC01CB0189839A83AB83F5
:10150000BC83CE010196BE016B5F7F4F0E949D0B95
:101510008D81823069F1823058F1843039F02F8129
:10152000388537FD25C02F31310544F08E81882361
:1015300019F100E010E020E030E822C08EE190E0F8
:10154000821B930B09851A852B853C8504C0369533
:101550002795179507958A95D2F78E81882381F074
:1015600030952095109501951F4F2F4F3F4F08C084
:1015700000E010E0980104C00FEF1FEF2FEF3FE7EE
:10158000B801C9012C96E4E00C948D0CCF92DF9247
:10159000EF92FF920F931F93DC0114964D915D9192
:1015A0006D917C9117971196EC9111978C918230E7
:1015B00020F460618FEF90E0A5C0843009F49DC0F5
:1015C000823009F494C0411551056105710509F493
:1015D00091C012968D919C9113972FEF82389207AC
:1015E0000CF059C022E83FEF281B390B2A31310596
:1015F00064F56A017B01022E04C0F694E794D79447
:10160000C7940A94D2F781E090E0A0E0B0E004C073
:10161000880F991FAA1FBB1F2A95D2F70197A1090E
:10162000B10984239523A623B72341E050E060E06D
:1016300070E00097A105B10519F440E050E0BA014F
:101640004C295D296E297F2903C040E050E0BA0192
:10165000DB01CA018F779070A070B0708034910563
:10166000A105B10539F447FF09C0405C5F4F6F4FDA
:101670007F4F04C0415C5F4F6F4F7F4F81E090E030
:10168000403020E0520720E0620720E4720738F57E
:1016900080E090E024C0803891057CF58A019B01B0
:1016A0000F7710702070307000341105210531055E
:1016B00039F447FF09C0405C5F4F6F4F7F4F04C054
:1016C000415C5F4F6F4F7F4F77FD03C081589F4F45
:1016D00006C0769567955795479580589F4F97E038
:1016E00076956795579547959A95D1F70BC080E009
:1016F00090E005C080E090E005C08FEF90E040E012
:1017000050E0BA01982F979599279795A62FAF7714
:10171000E795EE27E79586953A2F392B282F2E2B24
:10172000842F952FA32FB22FBC01CD011F910F91B4
:10173000FF90EF90DF90CF900895DC01FB014C917A
:1017400011965C91119712968C911297682F6F7772
:1017500070E0982F991F9927991F13962C91139732
:10176000822F880F892B90E0221F2227221F21839E
:10177000009739F5411551056105710511F482E0B5
:1017800029C082E89FEF9383828327E0440F551F8F
:10179000661F771F2A95D1F783E0808309C0440F25
:1017A000551F661F771F82819381019793838283E0
:1017B000403080E0580780E0680780E4780778F3DD
:1017C00020C08F3F910579F44115510561057105E0
:1017D00019F484E08083089564FF03C081E080836E
:1017E00010C010820EC08F5790409383828383E095
:1017F000808387E0440F551F661F771F8A95D1F7B6
:10180000706444835583668377830895CF93FC0186
:10181000DB019081923008F44CC08C91823008F446
:1018200048C0943069F42181843039F411968C9148
:10183000119790E0821B910944C02223D1F13FC04F
:10184000843021F0923041F48230B1F111968C91C4
:1018500011978823A1F12DC0C181823001F1119629
:101860008C911197C817D9F48281938112962D918A
:101870003C9113972817390794F082179307BCF00F
:10188000448155816681778114968D919D910D904B
:10189000BC91A02D84179507A607B70718F4CC2391
:1018A00041F00DC0481759076A077B0728F4CC237D
:1018B00031F081E090E005C080E090E002C08FEF61
:1018C0009FEFCF9108952F923F924F925F926F9228
:1018D0007F928F929F92AF92BF92CF92DF92EF92C0
:1018E000FF920F931F93CF93DF93CDB7DEB7CA1B41
:1018F000DB0B0FB6F894DEBF0FBECDBF09942A886C
:10190000398848885F846E847D848C849B84AA8413
:10191000B984C884DF80EE80FD800C811B81AA81A0
:10192000B981CE0FD11D0FB6F894DEBF0FBECDBF6B
:08193000ED010895F894FFCFCA
:101938006162633132332078597A2823242920556B
:0E1948006C73616E00000000000000000000E3
:00000001FF
