:100000000C9446000C9466000C9466000C946600F8
:100010000C9466000C9466000C9466000C946600C8
:100020000C9466000C9466000C9466000C946600B8
:100030000C9466000C9466000C9466000C946600A8
:100040000C9466000C9466000C9466000C94660098
:100050000C9466000C9466000C9466000C94660088
:100060000C9466000C9466000C9466000C94660078
:100070000C9466000C9466000C9466000C94660068
:100080000C9466000C9466000C94660011241FBE4C
:10009000CFEFD0E1DEBFCDBF11E0A0E0B1E0ECECEE
:1000A000F1E000E00BBF02C007900D92A431B10750
:1000B000D9F71BBE11E0A4E1B1E001C01D92A4314B
:1000C000B107E1F70E9468000C94E4000C94000072
:1000D000CF93DF93CDB7DEB766970FB6F894DEBF48
:1000E0000FBECDBFCE01039620E031E040E1F90123
:1000F00000802F5F3F4FFC01008201964150442356
:10010000B1F71B8A1C8A1D8A1E8A83E390E00E9435
:10011000A4001A82198212C09E012D5F3F4F89816F
:100120009A81820F931FFC018081882F90E00E94AA
:10013000C70089819A8101969A83898389819A81EE
:10014000843191054CF3FFCFCF93DF9300D0CDB72F
:10015000DEB79A83898380E990E0FC01108289E20E
:1001600090E02981FC0120838BE290E0FC01108269
:100170008AE290E028E0FC01208385E990E026E80F
:10018000FC0120830F900F90DF91CF910895CF93C2
:10019000DF9300D0CDB7DEB79A83898300008BE26E
:1001A00090E0FC018081882F90E080729070009731
:1001B000B1F38CE290E029813A81FC0120830F9019
:0C01C0000F90DF91CF910895F894FFCFCD
:1001CC0031323334353637383930206162632000B0
:0401DC00000000001F
:00000001FF
