:100000000C9446000C9466000C9466000C946600F8
:100010000C9466000C948A000C9466000C946600A4
:100020000C9466000C9466000C9466000C946600B8
:100030000C9466000C9466000C9466000C946600A8
:100040000C9466000C9466000C9466000C94660098
:100050000C9466000C9466000C9466000C94660088
:100060000C9466000C9466000C9466000C94660078
:100070000C9466000C9466000C9466000C94660068
:100080000C9466000C9466000C94660011241FBE4C
:10009000CFEFD0E1DEBFCDBF11E0A0E0B1E0ECEBEF
:1000A000FFE000E00BBF02C007900D92A830B1073F
:1000B000D9F71BBE11E0A8E0B1E001C01D92AA3043
:1000C000B107E1F70E9468000C94DC070C94000073
:1000D000CF93DF93CDB7DEB782E290E0FC011082D0
:1000E00087E390E02FEFFC01208388E590E020E893
:1000F000FC01208389E590E020E1FC0120838FE56D
:1001000090E020E8FC0120838AE590E022E0FC01F9
:100110002083FFCF1F920F920FB60F9200905B00CB
:100120000F9211240F931F932F933F934F935F933D
:100130006F937F938F939F93AF93BF93EF93FF93AF
:10014000CF93DF93CDB7DEB7A097DEBFCDBF809151
:10015000080190910901019690930901809308018B
:100160008FE590E0FC0110828FE590E020E8FC0133
:100170002083809108019091090122E030E0B901CB
:100180000E947E078130910509F0A4C01A8219826D
:100190009AC088E390E021E0FC01208388E390E0AE
:1001A00028E330E0F9012081222F30E0098002C0ED
:1001B000220F331F0A94E2F7FC01208380E090E0D5
:1001C000AAEFB2E48D839E83AF83B8876D817E8171
:1001D0008F81988520E030E04AEF54E40E94FC03D0
:1001E000DC01CB0189879A87AB87BC8711E06985E1
:1001F0007A858B859C8520E030E040E85FE30E94B3
:100200005F0588230CF010E0112329F081E090E0D5
:100210009E878D8746C011E069857A858B859C8590
:1002200020E03FEF4FE757E40E94FD0418160CF062
:1002300010E0112361F16D817E818F81988520E02E
:1002400030E040E251E40E94FC03DC01CB01BC0140
:10025000CD010E940F02DC01CB019E878D8712C069
:1002600088EC90E0988B8F878F8598898C01C801E6
:100270000197F1F78C01188B0F878D859E8501976B
:100280009E878D878D859E85009751F717C069855C
:100290007A858B859C850E940F02DC01CB019E87AD
:1002A0008D878D859E859A8B898B89899A898C010A
:1002B000F8013197F1F78F011A8B098B89819A81A7
:1002C00001969A83898389819A81883091050CF4FB
:1002D00060CFA4C01C821B829AC088E390E020E813
:1002E000FC01208388E390E028E330E0F9012081DD
:1002F000222F30E00B8002C0359527950A94E2F753
:10030000FC01208380E090E0AAEFB2E48B8B9C8B11
:10031000AD8BBE8B6B897C898D899E8920E030E016
:100320004AEF54E40E94FC03DC01CB018F8B988FD1
:10033000A98FBA8F11E06F89788D898D9A8D20E011
:1003400030E040E85FE30E945F0588230CF010E096
:10035000112329F081E090E09C8F8B8F46C011E043
:100360006F89788D898D9A8D20E03FEF4FE757E4B4
:100370000E94FD0418160CF010E0112361F16B8946
:100380007C898D899E8920E030E040E251E40E9422
:10039000FC03DC01CB01BC01CD010E940F02DC019A
:1003A000CB019C8F8B8F12C088EC90E09E8F8D8F3D
:1003B0008D8D9E8D8C01C8010197F1F78C011E8FE8
:1003C0000D8F8B8D9C8D01979C8F8B8F8B8D9C8D32
:1003D000009751F717C06F89788D898D9A8D0E948B
:1003E0000F02DC01CB019C8F8B8F8B8D9C8D98A392
:1003F0008F8F8F8D98A18C01F8013197F1F78F01C4
:1004000018A30F8F8B819C8101969C838B838B819A
:100410009C81883091050CF460CFA2CEA1CECF9202
:10042000DF92EF92FF920F931F936B017C0120E00C
:1004300030E040E05FE40E942E0587FD11C0C70157
:10044000B60120E030E040E05FE40E94C4030E9477
:1004500090058B019C01005010402040304806C0A0
:10046000C701B6010E9490058B019C01B801C9012A
:100470001F910F91FF90EF90DF90CF900895A0E033
:10048000B0E0E5E4F2E00C94A707EC014B01FA01BF
:100490008881823008F43EC1DB019C91923008F4DF
:1004A00036C1843059F4943009F034C199811196E1
:1004B0008C911197981709F027C12CC1943009F439
:1004C00026C19230A9F4823009F024C1CE0128E07F
:1004D000DC010D90CD01DA010D92AD012150C1F783
:1004E000D40111968C91119799818923818311C12F
:1004F000823009F40CC1AA80BB80DB0112964D91B9
:100500005C911397CC80DD80EE80FF8014960D9176
:100510001D912D913C911797C501841B950BDC0112
:1005200097FF04C0AA27BB27A81BB90BA032B105AF
:100530000CF067C01816190684F5280139010A2E37
:1005400004C076946794579447940A94D2F741E094
:1005500050E060E070E004C0440F551F661F771F35
:10056000AA95D2F74150504060407040402351233B
:100570006223732381E090E0A0E0B0E041155105D3
:100580006105710519F480E090E0DC018C019D01AA
:1005900004291529262937293FC00097E9F1AA0E19
:1005A000BB1E260137010A2E04C076946794579427
:1005B00047940A94D2F741E050E060E070E004C054
:1005C000440F551F661F771FAA95D2F74150504020
:1005D000604070404C215D216E217F2181E090E0E0
:1005E000A0E0B0E0411551056105710519F480E006
:1005F00090E0DC016C017D01C428D528E628F728AD
:100600000BC04A155B0524F400E010E0980104C01B
:100610005A01CC24DD2476018981D40111969C9164
:100620001197891709F445C0882329F00C191D0971
:100630002E093F0908C0D701C601801B910BA20BF0
:10064000B30B8C019D0137FD04C01182B382A282DD
:100650000BC081E08183B382A282309520951095F2
:1006600001951F4F2F4F3F4F0483158326833783F8
:100670000DC0880F991FAA1FBB1F84839583A68373
:10068000B78382819381019793838283848195814B
:10069000A681B781AC01BD0141505040604070401F
:1006A0004F3F2FEF52072FEF62072FE3720708F338
:1006B0000BC08183B382A2820C0D1D1D2E1D3F1D18
:1006C000048315832683378383E0808344815581A7
:1006D0006681778177FF1DC0DB01CA018170907050
:1006E000A070B0707695679557954795842B952B9C
:1006F000A62BB72B84839583A683B78382819381AE
:1007000001969383828305C0C0E0D1E003C0E40179
:1007100001C0EF01CE01CDB7DEB7E0E10C94C30715
:10072000A0E2B0E0E6E9F3E00C94B507DC01CB0110
:100730008D839E83AF83B88729833A834B835C8301
:10074000CE010596BE01675E7F4F0E94B806CE01BE
:100750000196BE016F5E7F4F0E94B806CE0149969A
:10076000BE016F5E7F4FAE01475F5F4F0E943F0249
:100770000E94E105462F572F682F792FCB01BA0130
:10078000A096E2E00C94D107A0E2B0E0EAECF3E03E
:100790000C94B507DC01CB018D839E83AF83B887B2
:1007A00029833A834B835C83CE010596BE01675E45
:1007B0007F4F0E94B806CE010196BE016F5E7F4F4B
:1007C0000E94B8068A8991E089278A8BCE014996D2
:1007D000BE016F5E7F4FAE01475F5F4F0E943F02D9
:1007E0000E94E105462F572F682F792FCB01BA01C0
:1007F000A096E2E00C94D107A0E2B0E0E2E0F4E0E1
:100800000C94A707DC01CB018D839E83AF83B8874F
:1008100029833A834B835C83CE010596BE01675ED4
:100820007F4F0E94B806CE010196BE016F5E7F4FDA
:100830000E94B806998D923078F089898230C0F094
:10084000943019F4823041F4CAC0843019F49230E3
:1008500079F4C5C0923051F481E02A8D9A89291724
:1008600009F480E08A8FCE014996BBC0823051F4F2
:1008700081E02A8D9A89291709F480E08A8BCE01BC
:100880004196AFC04D8C5E8C6F8C78A00D891E890F
:100890002F89388DE0E2F0E040E050E0BA01882492
:1008A00099245401CC24DD247601C201817090701A
:1008B0000097D1F0C00ED11EE21EF31EDB01CA016B
:1008C000880D991DAA1DBB1D41E050E060E070E05D
:1008D000C016D106E206F30618F040E050E0BA0177
:1008E000480F591F6A1F7B1F880C991CAA1CBB1C30
:1008F00037FF08C081E090E0A0E0B0E0882A992AA4
:10090000AA2ABB2A000F111F221F331F7694679457
:1009100057944794319749F68B8D9C8D2B893C8950
:10092000820F931F02969C878B8781E02A8D9A897C
:10093000291709F480E08A872B853C8517C0CA01F6
:1009400081709070009761F0F694E794D794C79403
:1009500080E090E0A0E0B0E8C82AD92AEA2AFB2A81
:1009600076956795579547952F5F3F4F77FDE7CF72
:10097000C9010BC0440F551F661F771FF7FC41606C
:10098000CC0CDD1CEE1CFF1C01974030A0E05A0788
:10099000A0E06A07A0E47A0768F38B879C87DB01F5
:1009A000CA018F779070A070B07080349105A10556
:1009B000B10561F447FD0AC0C114D104E104F1049A
:1009C00029F0405C5F4F6F4F7F4F40784D875E87C7
:1009D0006F87788B83E08987CE01099602C080E01B
:1009E00091E00E94E105462F572F682F792FCB0108
:1009F000BA01A096E0E10C94C307A8E1B0E0E3E0FF
:100A0000F5E00C94B507DC01CB018D839E83AF83A9
:100A1000B88729833A834B835C83CE010596BE0158
:100A20006F5E7F4F0E94B806CE010196BE01675FE0
:100A30007F4F0E94B8068989823058F089858230BC
:100A400040F0CE014196BE01675F7F4F0E942107B3
:100A500001C08FEF6896E2E00C94D107A8E1B0E006
:100A6000E4E3F5E00C94B507DC01CB018D839E83B4
:100A7000AF83B88729833A834B835C83CE01059685
:100A8000BE016F5E7F4F0E94B806CE010196BE0187
:100A9000675F7F4F0E94B8068989823058F0898548
:100AA000823040F0CE014196BE01675F7F4F0E94C9
:100AB000210701C08FEF6896E2E00C94D107A8E10E
:100AC000B0E0E5E6F5E00C94B507DC01CB018D83E1
:100AD0009E83AF83B88729833A834B835C83CE019F
:100AE0000596BE016F5E7F4F0E94B806CE0101964B
:100AF000BE01675F7F4F0E94B8068989823058F037
:100B00008985823040F0CE014196BE01675F7F4FFC
:100B10000E94210701C081E06896E2E00C94D107B1
:100B2000ACE0B0E0E6E9F5E00C94B307DC01CB0102
:100B300089839A83AB83BC83CE010196BE016B5F30
:100B40007F4F0E94B8068D81823069F1823058F162
:100B5000843039F02F81388537FD25C02F3131059C
:100B600044F08E81882319F100E010E020E030E8A5
:100B700022C08EE190E0821B930B09851A852B859C
:100B80003C8504C036952795179507958A95D2F729
:100B90008E81882381F030952095109501951F4F07
:100BA0002F4F3F4F08C000E010E0980104C00FEF46
:100BB0001FEF2FEF3FE7B801C9012C96E4E00C943A
:100BC000CF07CF92DF92EF92FF920F931F93DC013A
:100BD00014964D915D916D917C9117971196EC91C2
:100BE00011978C91823020F460618FEF90E0A5C066
:100BF000843009F49DC0823009F494C04115510538
:100C00006105710509F491C012968D919C9113971D
:100C10002FEF823892070CF059C022E83FEF281BD3
:100C2000390B2A31310564F56A017B01022E04C0BB
:100C3000F694E794D794C7940A94D2F781E090E0B1
:100C4000A0E0B0E004C0880F991FAA1FBB1F2A951F
:100C5000D2F70197A109B10984239523A623B723CD
:100C600041E050E060E070E00097A105B10519F4A3
:100C700040E050E0BA014C295D296E297F2903C06C
:100C800040E050E0BA01DB01CA018F779070A0709C
:100C9000B07080349105A105B10539F447FF09C052
:100CA000405C5F4F6F4F7F4F04C0415C5F4F6F4FA1
:100CB0007F4F81E090E0403020E0520720E0620763
:100CC00020E4720738F580E090E024C08038910578
:100CD0007CF58A019B010F77107020703070003412
:100CE00011052105310539F447FF09C0405C5F4F0C
:100CF0006F4F7F4F04C0415C5F4F6F4F7F4F77FD59
:100D000003C081589F4F06C07695679557954795C4
:100D100080589F4F97E076956795579547959A9598
:100D2000D1F70BC080E090E005C080E090E005C006
:100D30008FEF90E040E050E0BA01982F9795992707
:100D40009795A62FAF77E795EE27E79586953A2FEB
:100D5000392B282F2E2B842F952FA32FB22FBC0198
:100D6000CD011F910F91FF90EF90DF90CF900895EC
:100D7000DC01FB014C9111965C91119712968C91BC
:100D80001297682F6F7770E0982F991F9927991FF6
:100D900013962C911397822F880F892B90E0221F96
:100DA0002227221F2183009739F54115510561053E
:100DB000710511F482E029C082E89FEF938382835A
:100DC00027E0440F551F661F771F2A95D1F783E050
:100DD000808309C0440F551F661F771F828193814E
:100DE000019793838283403080E0580780E0680752
:100DF00080E4780778F320C08F3F910579F441159E
:100E000051056105710519F484E08083089564FF3C
:100E100003C081E0808310C010820EC08F579040C5
:100E20009383828383E0808387E0440F551F661F8E
:100E3000771F8A95D1F770644483558366837783DF
:100E40000895CF93FC01DB019081923008F44CC0EF
:100E50008C91823008F448C0943069F42181843048
:100E600039F411968C91119790E0821B910944C03E
:100E70002223D1F13FC0843021F0923041F48230FE
:100E8000B1F111968C9111978823A1F12DC0C181E8
:100E9000823001F111968C911197C817D9F4828193
:100EA000938112962D913C9113972817390794F04E
:100EB00082179307BCF0448155816681778114962F
:100EC0008D919D910D90BC91A02D84179507A6073B
:100ED000B70718F4CC2341F00DC0481759076A072B
:100EE0007B0728F4CC2331F081E090E005C080E05E
:100EF00090E002C08FEF9FEFCF91089597FB092EEE
:100F000007260AD077FD04D00CD006D000201AF4B2
:100F1000709561957F4F0895F6F7909581959F4F55
:100F20000895AA1BBB1B51E107C0AA1FBB1FA61730
:100F3000B70710F0A61BB70B881F991F5A95A9F782
:100F400080959095BC01CD0108952F923F924F92CC
:100F50005F926F927F928F929F92AF92BF92CF9249
:100F6000DF92EF92FF920F931F93CF93DF93CDB752
:100F7000DEB7CA1BDB0B0FB6F894DEBF0FBECDBFCA
:100F800009942A88398848885F846E847D848C849B
:100F90009B84AA84B984C884DF80EE80FD800C81A4
:100FA0001B81AA81B981CE0FD11D0FB6F894DEBF87
:0C0FB0000FBECDBFED010895F894FFCFF7
:080FBC0000000000000000002D
:00000001FF
