:100000000C9446000C9466000C9466000C946600F8
:100010000C9466000C94A0000C9466000C9466008E
:100020000C9466000C9466000C9466000C946600B8
:100030000C9466000C9466000C9466000C946600A8
:100040000C9466000C9466000C9466000C94660098
:100050000C9466000C9466000C9466000C94660088
:100060000C9466000C9466000C9466000C94660078
:100070000C9466000C9466000C9466000C94660068
:100080000C9466000C9466000C94660011241FBE4C
:10009000CFEFD0E1DEBFCDBF11E0A0E0B1E0ECE1F9
:1000A000FFE000E00BBF02C007900D92AE31B10738
:1000B000D9F71BBE11E0AEE1B1E001C01D92A13243
:1000C000B107E1F70E94D9020C948C070C94000050
:1000D000CF93DF93CDB7DEB780E990E0FC011082CB
:1000E00089E290E023E3FC0120838BE290E0FC01B5
:1000F00010828AE290E028E0FC01208385E990E00C
:1001000026E0FC012083DF91CF910895CF93DF9308
:100110000F92CDB7DEB7898300008BE290E0FC013F
:100120008081882F90E0807290700097B1F38CE905
:1001300090E02981FC0120830F90DF91CF910895F9
:100140001F920F920FB60F9200905B000F92112436
:100150000F931F932F933F934F935F936F937F93CF
:100160008F939F93AF93BF93EF93FF93CF93DF93BF
:10017000CDB7DEB76E97DEBFCDBF0E94680080E0CE
:1001800090E0A8E4B2E48B839C83AD83BE836B8153
:100190007C818D819E8120E030E04AEF54E40E9412
:1001A0002B04DC01CB018F839887A987BA8711E0E4
:1001B0006F81788589859A8520E030E040E85FE3AB
:1001C0000E94AA0388230CF010E0112329F081E09B
:1001D00090E09C878B8746C011E06F817885898588
:1001E0009A8520E03FEF4FE757E40E942704181656
:1001F0000CF010E0112361F16B817C818D819E8177
:1002000020E030E040E251E40E942B04DC01CB010D
:10021000BC01CD010E94AE03DC01CB019C878B8722
:1002200012C088EC90E09E878D878D859E858C011D
:10023000C8010197F1F78C011E870D878B859C857E
:1002400001979C878B878B859C85009751F717C0FA
:100250006F81788589859A850E94AE03DC01CB0188
:100260009C878B878B859C85988B8F878F859889BA
:100270008C01F8013197F1F78F01188B0F871A82E3
:10028000198280911E0190911F01019690931F0188
:1002900080931E0120911E0130911F0100D000D0DB
:1002A00000D08DB79EB7019640E251E0FC0151832A
:1002B000408340E051E0FC0153834283FC013583DD
:1002C00024830E94B6048DB79EB706960FB6F894A5
:1002D0009EBF0FBE8DBF89819A81805E9E4FFC01BB
:1002E0008081882309F490C089819A81805E9E4F25
:1002F000FC01208189819A8101969A838983822FCA
:100300000E94860080E090E0A8E4B3E4898B9A8B99
:10031000AB8BBC8B69897A898B899C8920E030E022
:100320004AEF54E40E942B04DC01CB018D8B9E8BA1
:10033000AF8BB88F11E06D897E898F89988D20E011
:1003400030E040E85FE30E94AA0388230CF010E04D
:10035000112329F081E090E09A8F898F46C011E047
:100360006D897E898F89988D20E03FEF4FE757E4B4
:100370000E94270418160CF010E0112361F169891E
:100380007A898B899C8920E030E040E251E40E9428
:100390002B04DC01CB01BC01CD010E94AE03DC01CA
:1003A000CB019A8F898F12C088EC90E09C8F8B8F45
:1003B0008B8D9C8D8C01C8010197F1F78C011C8FEE
:1003C0000B8F898D9A8D01979A8F898F898D9A8D40
:1003D000009751F718C06D897E898F89988D0E948A
:1003E000AE03DC01CB019A8F898F898D9A8D9E8F08
:1003F0008D8F8D8D9E8D8C01F8013197F1F78F01D6
:100400001E8F0D8F68CF67CF00006E96DEBFCDBF09
:10041000DF91CF91FF91EF91BF91AF919F918F911C
:100420007F916F915F914F913F912F911F910F910C
:100430000F9000925B000F900FBE0F901F901895C9
:100440000F931F93CF93DF93CDB7DEB762970FB6AD
:10045000F894DEBF0FBECDBF9A8B898B1A821982AA
:1004600089819A8129893A89820F931FFC018081B1
:10047000882309F492C089819A8129893A89820F57
:10048000931FFC01208189819A8101969A83898337
:10049000822F0E94860080E090E0A8E4B3E48B8382
:1004A0009C83AD83BE836B817C818D819E8120E0A6
:1004B00030E04AEF54E40E942B04DC01CB018F832F
:1004C0009887A987BA8711E06F81788589859A8591
:1004D00020E030E040E85FE30E94AA0388230CF0AC
:1004E00010E0112329F081E090E09C878B8746C0C3
:1004F00011E06F81788589859A8520E03FEF4FE78D
:1005000057E40E94270418160CF010E0112361F143
:100510006B817C818D819E8120E030E040E251E45E
:100520000E942B04DC01CB01BC01CD010E94AE0373
:10053000DC01CB019C878B8712C088EC90E09E8702
:100540008D878D859E858C01C8010197F1F78C01FF
:100550001E870D878B859C8501979C878B878B8554
:100560009C85009751F718C06F81788589859A8599
:100570000E94AE03DC01CB019C878B878B859C8519
:10058000988B8F878F8598898C01F8013197F1F7C7
:100590008F01188B0F8764CF63CF000062960FB670
:1005A000F894DEBF0FBECDBFDF91CF911F910F91A9
:1005B00008950F931F93CF93DF93CDB7DEB7A29724
:1005C0000FB6F894DEBF0FBECDBFCE010F962AE066
:1005D00031E04BE0F90100802F5F3F4FFC010082CA
:1005E000019641504423B1F729E0CE014A96FC011F
:1005F000322F11923A95E9F785E590E020E8FC0169
:1006000020838DE690E024E4FC0120838CE690E0DA
:1006100020E8FC01208382E290E0FC01108283E26A
:1006200090E020E1FC01208389E590E020E1FC01DD
:1006300020838AE590E022E0FC0120838FE590E0B2
:1006400020E8FC0120830E94680080E090E0A8E49C
:10065000B2E489839A83AB83BC8369817A818B817D
:100660009C8120E030E04AEF54E40E942B04DC013E
:10067000CB018D839E83AF83B88711E06D817E812E
:100680008F81988520E030E040E85FE30E94AA0374
:1006900088230CF010E0112329F081E090E09A8784
:1006A000898746C011E06D817E818F81988520E029
:1006B0003FEF4FE757E40E94270418160CF010E0B4
:1006C000112361F169817A818B819C8120E030E086
:1006D00040E251E40E942B04DC01CB01BC01CD01BE
:1006E0000E94AE03DC01CB019A87898712C088EC97
:1006F00090E09C878B878B859C858C01C801019736
:10070000F1F78C011C870B8789859A8501979A8759
:10071000898789859A85009751F717C06D817E81F9
:100720008F8198850E94AE03DC01CB019A8789876F
:1007300089859A859E878D878D859E858C01F80198
:100740003197F1F78F011E870D87CE010F960E941A
:100750002002FFCF2FD008F481E0089557D088F011
:100760009F5790F0B92F9927B751A0F0D1F0660F9D
:10077000771F881F991F1AF0BA95C9F712C0B130B8
:1007800081F05ED0B1E008955BC0672F782F882795
:10079000B85F39F0B93FCCF3869577956795B395F7
:1007A000D9F73EF490958095709561957F4F8F4F66
:1007B0009F4F0895990F0008550FAA0BE0E8FEEF30
:1007C00016161706E807F907C0F012161306E40715
:1007D000F50798F0621B730B840B950B39F40A260E
:1007E00061F0232B242B252B21F408950A2609F4EC
:1007F000A140A6958FEF811D811D089557FD90584A
:10080000440F551F59F05F3F71F04795880F97FBD4
:10081000991F61F09F3F79F087950895121613068E
:100820001406551FF2CF4695F1DF08C016161706BD
:100830001806991FF1CF86957105610508940895F2
:10084000E894BB2766277727CB0197F90895B2DF95
:1008500008F48FEF08950BD078C069D028F06ED0DF
:1008600018F0952309F05AC05FC01124EACFC6DF03
:10087000A0F3959FD1F3950F50E0551F629FF001B3
:10088000729FBB27F00DB11D639FAA27F00DB11D0C
:10089000AA1F649F6627B00DA11D661F829F222795
:1008A000B00DA11D621F739FB00DA11D621F839F1C
:1008B000A00D611D221F749F3327A00D611D231FF2
:1008C000849F600D211D822F762F6A2F11249F5740
:1008D00050408AF0E1F088234AF0EE0FFF1FBB1F63
:1008E000661F771F881F91505040A9F79E3F510502
:1008F00070F014C0A6CF5F3FECF3983EDCF3869512
:1009000077956795B795F795E7959F5FC1F7FE2BAC
:10091000880F911D9695879597F9089597F99F6788
:1009200080E870E060E008959FEF80EC0895002477
:100930000A941616170618060906089500240A9444
:1009400012161306140605060895092E0394000CCA
:1009500011F4882352F0BB0F40F4BF2B11F460FF59
:1009600004C06F5F7F4F8F4F9F4F08950F931F936A
:10097000CF93DF93CDB7DEB72E970FB6F894DEBFD7
:100980000FBECDBF0D891E8986E08C831A83098333
:100990008FEF9FE79E838D83AE01475E5F4FCE0151
:1009A00001966F89788D0E94E504EF81F885E00F4C
:1009B000F11F10822E960FB6F894DEBF0FBECDBF8A
:1009C000DF91CF911F910F9108952F923F924F92F7
:1009D0005F926F927F928F929F92AF92BF92CF92CF
:1009E000DF92EF92FF920F931F93CF93DF93CDB7D8
:1009F000DEB72D970FB6F894DEBF0FBECDBF3C011A
:100A00007D876C875A01FC0117821682838181FFE2
:100A1000C8C12E010894411C511CF3019381EC853F
:100A2000FD8593FD859193FF8191FD87EC87882358
:100A300009F4B3C1853241F493FD859193FF81910F
:100A4000FD87EC87853229F490E0B3010E9402070C
:100A5000E4CFFF24EE2410E01032B0F48B3269F0C2
:100A60008C3228F4803251F0833271F40BC08D3215
:100A700039F0803349F411602CC01260146029C031
:100A8000186027C0106125C017FD2EC0282F2053E5
:100A90002A3098F416FF08C08F2D880FF82EFF0C0F
:100AA000FF0CF80EF20E15C08E2D880FE82EEE0CFE
:100AB000EE0CE80EE20E10620CC08E3221F416FD30
:100AC0006CC1106406C08C3611F4106802C0883600
:100AD00059F4EC85FD8593FD859193FF8191FD8708
:100AE000EC87882309F0B8CF982F9554933018F0ED
:100AF0009052933038F424E030E0A20EB31E3FE36E
:100B000039830FC0833631F0833781F0833509F0A4
:100B10005AC022C0F5018081898322E030E0A20E14
:100B2000B31E21E0C22ED12C420114C092E0292E26
:100B3000312C2A0C3B1CF5018080918016FF03C0EC
:100B40006F2D70E002C06FEF7FEFC4010E94F706C7
:100B50006C0151011F7715C082E0282E312C2A0C20
:100B60003B1CF5018080918016FF03C06F2D70E063
:100B700002C06FEF7FEFC4010E94EC066C011068A9
:100B8000510113FD1CC006C080E290E0B3010E9439
:100B90000207EA948E2D90E0C816D906A8F30FC07C
:100BA000F40117FD859117FF81914F0190E0B3018A
:100BB0000E940207E110EA940894C108D108C11408
:100BC000D10471F7E7C0843611F0893651F5F5018B
:100BD00017FF07C080819181A281B38124E030E0BA
:100BE00008C080819181AA2797FDA095BA2F22E0A5
:100BF00030E0A20EB31E012F0F76B7FF08C0B095EC
:100C0000A095909581959F4FAF4FBF4F0068BC0155
:100C1000CD01A2012AE030E00E942E07D82ED41880
:100C20003FC0853721F41F7E2AE030E020C0197FC5
:100C30008F36A9F0803720F4883509F0AEC00BC09C
:100C4000803721F0883709F0A8C001C0106114FF77
:100C500009C0146007C014FF08C0166006C028E071
:100C600030E005C020E130E002C020E132E0F501D3
:100C700017FF07C0608171818281938144E050E059
:100C800006C06081718180E090E042E050E0A40EF7
:100C9000B51EA2010E942E07D82ED418012F0F775F
:100CA00006FF09C00E7FDF1430F404FF06C002FD0A
:100CB00004C00F7E02C01D2D01C01F2D802F90E0AB
:100CC00004FF0CC0FE01ED0DF11D2081203311F455
:100CD000097E09C002FF06C01E5F05C086789070BD
:100CE000009709F01F5F802E992403FD12C000FFBA
:100CF0000DC0FD2C1E1550F4FE0CF11A1E2D06C061
:100D000080E290E0B3010E9402071F5F1E15C0F34E
:100D100004C01E1510F4E11A01C0EE2484FE0FC0B9
:100D200080E390E0B3010E94020782FE1FC081FEB3
:100D300003C088E590E010C088E790E00DC0C401D2
:100D400086789070009791F081FC02C080E201C02B
:100D50008BE207FD8DE290E0B3010E94020706C01E
:100D600080E390E0B3010E940207FA94DF14C0F31D
:100D7000DA94F201ED0DF11D808190E0B3010E9443
:100D80000207DD20A9F706C080E290E0B3010E94CF
:100D90000207EA94EE20C1F740CEF30186819781E5
:100DA00002C08FEF9FEF2D960FB6F894DEBF0FBEF7
:100DB000CDBFDF91CF911F910F91FF90EF90DF900A
:100DC000CF90BF90AF909F908F907F906F905F90EB
:100DD0004F903F902F900895FC0105906150704016
:100DE0000110D8F7809590958E0F9F1F0895FC01F4
:100DF0006150704001900110D8F7809590958E0F4A
:100E00009F1F08950F931F93CF93DF938C01EB01E6
:100E10008B8181FF1BC082FF0DC02E813F818C81A1
:100E20009D812817390764F4E881F9810193F983DA
:100E3000E88306C0E885F985802F0995009731F48D
:100E40008E819F8101969F838E8302C00FEF1FEFDB
:100E5000C801DF91CF911F910F910895FA01AA2740
:100E6000283051F1203181F1E8946F936E7F6E5FED
:100E70007F4F8F4F9F4FAF4FB1E03ED0B4E03CD09B
:100E8000670F781F891F9A1FA11D680F791F8A1F7E
:100E9000911DA11D6A0F711D811D911DA11D20D0E5
:100EA00009F468943F912AE0269F11243019305D9F
:100EB0003193DEF6CF010895462F4770405D419390
:100EC000B3E00FD0C9F7F6CF462F4F70405D4A33DD
:100ED00018F0495D31FD4052419302D0A9F7EACFA5
:100EE000B4E0A6959795879577956795BA95C9F7D4
:100EF00000976105710508959B01AC010A2E0694C7
:100F00005795479537952795BA95C9F7620F731F7F
:0C0F1000841F951FA01D0895F894FFCFCA
:100F1C0025642070656F706C65006E6F2070656F56
:0E0F2C00706C65200000000000000000000056
:00000001FF
