:100000000C94C7000C94E7000C94E7000C94E700F4
:100010000C94E7000C94E7000C94E7000C94E700C4
:100020000C94E7000C94E7000C94E7000C94E700B4
:100030000C94E7000C94E7000C94E7000C94E700A4
:100040000C94E7000C94E7000C94E7000C94E70094
:100050000C94E7000C94E7000C94E7000C94E70084
:100060000C94E7000C94E7000C94E7000C94E70074
:100070000C94E7000C94E7000C94E7000C94E70064
:100080000C94E7000C94E7000C94E7006E616E009E
:10009000696E660000407A10F35A00A0724E18098B
:1000A0000010A5D4E80000E87648170000E40B54DF
:1000B000020000CA9A3B000000E1F50500008096AE
:1000C0009800000040420F000000A08601000000E0
:1000D000102700000000E80300000000640000009A
:1000E00000000A00000000000100000000002C7663
:1000F000D888DC674F0823DFC1DFAE59E1B1B7967E
:10010000E5E3E453C63AE651997696E8E6C28426DA
:10011000EB898C9B62ED407C6FFCEFBC9C9F40F2B6
:10012000BAA56FA5F490055A2AF75C936B6CF96732
:100130006DC11BFCE0E40D47FEF520E6B500D0EDF7
:10014000902E0300943577050080841E080000205F
:100150004E0A000000C80C333333330F986E1283FD
:100160001141EF8D2114893BE65516CFFEE6DB18D1
:10017000D1844B381BF77C1D901DA4BBE424203296
:1001800084725E228100C9F124ECA1E53D2711248F
:100190001FBECFEFD0E1DEBFCDBF11E0A0E0B1E0E8
:1001A000E4E3F0E200E00BBF02C007900D92A6313D
:1001B000B107D9F71BBE11E0A6E1B1E001C01D9265
:1001C000A631B107E1F70E945D040C9418100C945D
:1001D00000000F931F93CF93DF93CDB7DEB72E9719
:1001E0000FB6F894DEBF0FBECDBF80E090E0A8E46C
:1001F000B2E489839A83AB83BC8369817A818B81E2
:100200009C8120E030E04AEF54E40E948706DC0144
:10021000CB018D839E83AF83B88711E06D817E8192
:100220008F81988520E030E040E85FE30E949508E8
:1002300088230CF010E0112329F081E090E09A87E8
:10024000898746C011E06D817E818F81988520E08D
:100250003FEF4FE757E40E94330818160CF010E008
:10026000112361F169817A818B819C8120E030E0EA
:1002700040E251E40E948706DC01CB01BC01CD01C4
:100280000E949A04DC01CB019A87898712C088EC0E
:1002900090E09C878B878B859C858C01C80101979A
:1002A000F1F78C011C870B8789859A8501979A87BE
:1002B000898789859A85009751F717C06D817E815E
:1002C0008F8198850E949A04DC01CB019A878987E7
:1002D00089859A859E878D878D859E858C01C8012D
:1002E0000197F1F78C011E870D872E960FB6F894B3
:1002F000DEBF0FBECDBFDF91CF911F910F9108954B
:100300000F931F93CF93DF93CDB7DEB769970FB6E7
:10031000F894DEBF0FBECDBF898F0E94E9008BE34A
:1003200090E0298DFC01208385E390E024E0FC012E
:10033000208385E390E0FC01108280E090E0A0E85B
:10034000BFE389839A83AB83BC8369817A818B8184
:100350009C812BEA3AEA4AE250E40E948706DC01DB
:10036000CB018D839E83AF83B88711E06D817E8141
:100370008F81988520E030E040E85FE30E94950897
:1003800088230CF010E0112319F081E08987A3C0C5
:1003900011E06D817E818F81988520E030E04FE70C
:1003A00053E40E94330818160CF010E0112309F4EE
:1003B00089C069817A818B819C8120E030E04AE7A5
:1003C00054E40E948807DC01CB018A879B87AC87B5
:1003D000BD876A857B858C859D8520E030E04AEF6E
:1003E00054E40E948706DC01CB018E879F87A88B8F
:1003F000B98B11E06E857F858889998920E030E08E
:1004000040E85FE30E94950888230CF010E0112378
:1004100029F081E090E09B8B8A8B46C011E06E85CD
:100420007F858889998920E03FEF4FE757E40E9454
:10043000330818160CF010E0112361F16A857B85F2
:100440008C859D8520E030E040E251E40E948706E3
:10045000DC01CB01BC01CD010E949A04DC01CB017F
:100460009B8B8A8B12C088EC90E09D8B8C8B8C8947
:100470009D898C01C8010197F1F78C011D8B0C8BB4
:100480008A899B8901979B8B8A8B8A899B89009794
:1004900051F728C06E857F85888999890E949A04C2
:1004A000DC01CB019B8B8A8B8A899B899F8B8E8BEE
:1004B0008E899F898C01F8013197F1F78F011F8B8D
:1004C0000E8B10C06D817E818F8198850E949A0469
:1004D000DC01CB0189878985888F888D182F1A9533
:1004E000F1F7188F69960FB6F894DEBF0FBECDBF37
:1004F000DF91CF911F910F910895CF93DF93CDB7E7
:10050000DEB78AE390E02FEFFC01208384E390E0E4
:100510002FEFFC01208388E30E94800188E00E9485
:10052000800181E00E94800186E00E9480018FE0CE
:100530000E948001DF91CF9108950F931F93CF9375
:10054000DF93CDB7DEB769970FB6F894DEBF0FBE65
:10055000CDBF898F0E94E9008BE390E0298DFC01DB
:10056000208385E390E025E0FC01208385E390E093
:1005700021E0FC01208380E090E0A8E4B2E48983DC
:100580009A83AB83BC8369817A818B819C812BEABE
:100590003AEA4AE250E40E948706DC01CB018D83EF
:1005A0009E83AF83B88711E06D817E818F819885AE
:1005B00020E030E040E85FE30E94950888230CF0DB
:1005C00010E0112319F081E08987A3C011E06D814B
:1005D0007E818F81988520E030E04FE753E40E94D0
:1005E000330818160CF010E0112309F489C0698152
:1005F0007A818B819C8120E030E04AE754E40E94BC
:100600008807DC01CB018A879B87AC87BD876A8519
:100610007B858C859D8520E030E04AEF54E40E9484
:100620008706DC01CB018E879F87A88BB98B11E0F1
:100630006E857F858889998920E030E040E85FE316
:100640000E94950888230CF010E0112329F081E026
:1006500090E09B8B8A8B46C011E06E857F858889F0
:10066000998920E03FEF4FE757E40E9433081816BE
:100670000CF010E0112361F16A857B858C859D85E6
:1006800020E030E040E251E40E948706DC01CB012B
:10069000BC01CD010E949A04DC01CB019B8B8A8BAB
:1006A00012C088EC90E09D8B8C8B8C899D898C018D
:1006B000C8010197F1F78C011D8B0C8B8A899B89EE
:1006C00001979B8B8A8B8A899B89009751F728C059
:1006D0006E857F85888999890E949A04DC01CB0107
:1006E0009B8B8A8B8A899B899F8B8E8B8E899F8916
:1006F0008C01F8013197F1F78F011F8B0E8B10C021
:100700006D817E818F8198850E949A04DC01CB01E6
:1007100089878985888F888D182F1A95F1F7188F0A
:1007200069960FB6F894DEBF0FBECDBFDF91CF91B3
:100730001F910F910895CF93DF9300D000D0CDB7D4
:10074000DEB79C838B831A82198289819A812B81DF
:100750003C81820F931FFC018081882389F089816D
:100760009A812B813C81820F931FFC01208189811A
:100770009A8101969A838983822F0E949D02E5CFF8
:1007800000000F900F900F900F90DF91CF91089580
:10079000CF93DF93CDB7DEB781E00E948001DF9178
:1007A000CF910895CF93DF93CDB7DEB782E00E945B
:1007B0008001DF91CF910895CF93DF9300D000D0D7
:1007C0000F92CDB7DEB79B838A837D836C8384E0F1
:1007D00089838A819B818130910519F489818260A6
:1007E00089838C819D818130910519F48981816093
:1007F000898389810E9480010F900F900F900F9044
:100800000F90DF91CF910895CF93DF9300D000D068
:100810000F92CDB7DEB79B838A837D836C8380E1A3
:1008200089838A819B818130910519F4898188604F
:1008300089838C819D818130910519F4898184603F
:10084000898389810E9480010F900F900F900F90F3
:100850000F90DF91CF910895CF93DF9300D00F9247
:10086000CDB7DEB78A836B838A81882F90E00197AA
:10087000982F9295990F990F907C8B81890F8150B9
:100880008068898389810E9480010F900F900F906A
:10089000DF91CF910895CF93DF93CDB7DEB70000FE
:1008A0008EE290E0FC0180818823D4F78FE290E013
:1008B000FC018081DF91CF910895CF93DF9300D029
:1008C0000F92CDB7DEB70E947D0287E390E028E06B
:1008D000FC01208388E390E0FC0110828DE290E02F
:1008E0002CE4FC0120838EE290E0FC01108280E089
:1008F00091E00E949B0382E061E00E942C041A8236
:1009000019820BC00E944B048B838B810E949D0235
:1009100089819A8101969A83898389819A818E300F
:10092000910584F380E090E00F900F900F90DF919D
:10093000CF910895CF92DF92EF92FF920F931F9382
:100940006B017C0120E030E040E05FE40E9464083D
:1009500087FD11C0C701B60120E030E040E05FE450
:100960000E944F060E94C6088B019C010050104057
:100970002040304806C0C701B6010E94C6088B015E
:100980009C01B801C9011F910F91FF90EF90DF907A
:10099000CF900895A0E0B0E0E0EDF4E00C946B0E91
:1009A000EC014B01FA018881823008F43EC1DB0181
:1009B0009C91923008F436C1843059F4943009F097
:1009C00034C1998111968C911197981709F027C11C
:1009D0002CC1943009F426C19230A9F4823009F078
:1009E00024C1CE0128E0DC010D90CD01DA010D9289
:1009F000AD012150C1F7D40111968C9111979981C5
:100A00008923818311C1823009F40CC1AA80BB8083
:100A1000DB0112964D915C911397CC80DD80EE80C6
:100A2000FF8014960D911D912D913C911797C50152
:100A3000841B950BDC0197FF04C0AA27BB27A81BCA
:100A4000B90BA032B1050CF067C01816190684F571
:100A5000280139010A2E04C076946794579447946C
:100A60000A94D2F741E050E060E070E004C0440F27
:100A7000551F661F771FAA95D2F74150504060401E
:100A80007040402351236223732381E090E0A0E073
:100A9000B0E0411551056105710519F480E090E061
:100AA000DC018C019D0104291529262937293FC025
:100AB0000097E9F1AA0EBB1E260137010A2E04C0D9
:100AC00076946794579447940A94D2F741E050E0A3
:100AD00060E070E004C0440F551F661F771FAA95A1
:100AE000D2F741505040604070404C215D216E2152
:100AF0007F2181E090E0A0E0B0E041155105610563
:100B0000710519F480E090E0DC016C017D01C428DE
:100B1000D528E628F7280BC04A155B0524F400E029
:100B200010E0980104C05A01CC24DD2476018981AB
:100B3000D40111969C911197891709F445C0882317
:100B400029F00C191D092E093F0908C0D701C6015B
:100B5000801B910BA20BB30B8C019D0137FD04C0D0
:100B60001182B382A2820BC081E08183B382A28210
:100B700030952095109501951F4F2F4F3F4F0483BF
:100B80001583268337830DC0880F991FAA1FBB1FAB
:100B900084839583A683B78382819381019793830E
:100BA000828384819581A681B781AC01BD014150CA
:100BB0005040604070404F3F2FEF52072FEF6207C9
:100BC0002FE3720708F30BC08183B382A2820C0D5E
:100BD0001D1D2E1D3F1D048315832683378383E04F
:100BE0008083448155816681778177FF1DC0DB0159
:100BF000CA0181709070A070B07076956795579516
:100C00004795842B952BA62BB72B84839583A6839E
:100C1000B7838281938101969383828305C0CEE05E
:100C2000D1E003C0E40101C0EF01CE01CDB7DEB7D2
:100C3000E0E10C94870EA0E2B0E0E1E2F6E00C9473
:100C4000790EDC01CB018D839E83AF83B887298326
:100C50003A834B835C83CE010596BE01675E7F4F6E
:100C60000E94EE09CE010196BE016F5E7F4F0E9489
:100C7000EE09CE014996BE016F5E7F4FAE01475F20
:100C80005F4F0E94CA040E941709462F572F682FF2
:100C9000792FCB01BA01A096E2E00C94950EA0E268
:100CA000B0E0E5E5F6E00C94790EDC01CB018D8334
:100CB0009E83AF83B88729833A834B835C83CE01BD
:100CC0000596BE01675E7F4F0E94EE09CE01019638
:100CD000BE016F5E7F4F0E94EE098A8991E08927ED
:100CE0008A8BCE014996BE016F5E7F4FAE01475F92
:100CF0005F4F0E94CA040E941709462F572F682F82
:100D0000792FCB01BA01A096E2E00C94950EA0E2F7
:100D1000B0E0EDE8F6E00C946B0EDC01CB018D83C6
:100D20009E83AF83B88729833A834B835C83CE014C
:100D30000596BE01675E7F4F0E94EE09CE010196C7
:100D4000BE016F5E7F4F0E94EE09998D923078F060
:100D500089898230C0F0943019F4823041F4CAC0DD
:100D6000843019F4923079F4C5C0923051F481E0A6
:100D70002A8D9A89291709F480E08A8FCE01499635
:100D8000BBC0823051F481E02A8D9A89291709F479
:100D900080E08A8BCE014196AFC04D8C5E8C6F8C0B
:100DA00078A00D891E892F89388DE0E2F0E040E0BF
:100DB00050E0BA01882499245401CC24DD24760122
:100DC000C201817090700097D1F0C00ED11EE21E5A
:100DD000F31EDB01CA01880D991DAA1DBB1D41E050
:100DE00050E060E070E0C016D106E206F30618F0AD
:100DF00040E050E0BA01480F591F6A1F7B1F880C62
:100E0000991CAA1CBB1C37FF08C081E090E0A0E041
:100E1000B0E0882A992AAA2ABB2A000F111F221F94
:100E2000331F7694679457944794319749F68B8D86
:100E30009C8D2B893C89820F931F02969C878B8700
:100E400081E02A8D9A89291709F480E08A872B8509
:100E50003C8517C0CA0181709070009761F0F694CC
:100E6000E794D794C79480E090E0A0E0B0E8C82A67
:100E7000D92AEA2AFB2A76956795579547952F5FD9
:100E80003F4F77FDE7CFC9010BC0440F551F661FC9
:100E9000771FF7FC4160CC0CDD1CEE1CFF1C01979A
:100EA0004030A0E05A07A0E06A07A0E47A0768F3A0
:100EB0008B879C87DB01CA018F779070A070B07020
:100EC00080349105A105B10561F447FD0AC0C11444
:100ED000D104E104F10429F0405C5F4F6F4F7F4F74
:100EE00040784D875E876F87788B83E08987CE0156
:100EF000099602C08EE091E00E941709462F572FF5
:100F0000682F792FCB01BA01A096E0E10C94870EEF
:100F1000A8E1B0E0EEE8F7E00C94730EDC01CB0141
:100F20008D839E83AF83B88729833A834B835C8309
:100F3000CE010596BE016F5E7F4F0E94EE09CE0185
:100F40000196BE01675F7F4F0E94EE09998992303A
:100F500008F475C08985823008F474C02A893A85FE
:100F600023272A8B943011F0923021F4981709F03E
:100F700066C06BC0843039F41D8A1E8A1F8A188EA1
:100F80001C8A1B8A5CC0823019F484E0898B57C0AC
:100F90002B893C898B859C85281B390B3C8B2B8BA3
:100FA0008D899E89AF89B88DCD84DE84EF84F888E1
:100FB0008C159D05AE05BF0540F4880F991FAA1F2B
:100FC000BB1F215030403C8B2B8BEFE1F0E000E069
:100FD00010E020E030E440E050E0BA018C159D05BF
:100FE000AE05BF0540F0402B512B622B732B8C19A3
:100FF0009D09AE09BF093695279517950795880F66
:10100000991FAA1FBB1F319749F78A019B010F77D0
:10101000107020703070003411052105310559F42D
:1010200047FD09C00097A105B10529F0405C5F4F5D
:101030006F4F7F4F40784D8B5E8B6F8B788FCE01DB
:10104000419605C0CE01099602C08EE091E00E9453
:101050001709462F572F682F792FCB01BA016896B1
:10106000E8E00C948F0EA8E1B0E0E9E3F8E00C941E
:10107000790EDC01CB018D839E83AF83B8872983F2
:101080003A834B835C83CE010596BE016F5E7F4F32
:101090000E94EE09CE010196BE01675F7F4F0E945C
:1010A000EE098989823058F08985823040F0CE017E
:1010B0004196BE01675F7F4F0E94570A01C08FEFC4
:1010C0006896E2E00C94950EA8E1B0E0EAE6F8E05C
:1010D0000C94790EDC01CB018D839E83AF83B8879E
:1010E00029833A834B835C83CE010596BE016F5EF4
:1010F0007F4F0E94EE09CE010196BE01675F7F4FD0
:101100000E94EE098989823058F08985823040F04A
:10111000CE014196BE01675F7F4F0E94570A01C012
:101120008FEF6896E2E00C94950EA8E1B0E0EBE951
:10113000F8E00C94790EDC01CB018D839E83AF83A4
:10114000B88729833A834B835C83CE010596BE0121
:101150006F5E7F4F0E94EE09CE010196BE01675F70
:101160007F4F0E94EE098989823058F0898582304C
:1011700040F0CE014196BE01675F7F4F0E94570A43
:1011800001C081E06896E2E00C94950EACE0B0E01E
:10119000ECECF8E00C94770EDC01CB0189839A83A8
:1011A000AB83BC83CE010196BE016B5F7F4F0E9473
:1011B000EE098D81823069F1823058F1843039F046
:1011C0002F81388537FD25C02F31310544F08E81C0
:1011D000882319F100E010E020E030E822C08EE121
:1011E00090E0821B930B09851A852B853C8504C0F2
:1011F00036952795179507958A95D2F78E8188237E
:1012000081F030952095109501951F4F2F4F3F4F3E
:1012100008C000E010E0980104C00FEF1FEF2FEFAF
:101220003FE7B801C9012C96E4E00C94930ECF92ED
:10123000DF92EF92FF920F931F93DC0114964D9172
:101240005D916D917C9117971196EC9111978C910E
:10125000823020F460618FEF90E0A5C0843009F403
:101260009DC0823009F494C0411551056105710596
:1012700009F491C012968D919C9113972FEF8238AB
:1012800092070CF059C022E83FEF281B390B2A3196
:10129000310564F56A017B01022E04C0F694E794DF
:1012A000D794C7940A94D2F781E090E0A0E0B0E030
:1012B00004C0880F991FAA1FBB1F2A95D2F7019758
:1012C000A109B10984239523A623B72341E050E067
:1012D00060E070E00097A105B10519F440E050E02E
:1012E000BA014C295D296E297F2903C040E050E0F6
:1012F000BA01DB01CA018F779070A070B0708034A2
:101300009105A105B10539F447FF09C0405C5F4F65
:101310006F4F7F4F04C0415C5F4F6F4F7F4F81E045
:1013200090E0403020E0520720E0620720E472079E
:1013300038F580E090E024C0803891057CF58A0182
:101340009B010F771070207030700034110521055B
:10135000310539F447FF09C0405C5F4F6F4F7F4F45
:1013600004C0415C5F4F6F4F7F4F77FD03C08158D2
:101370009F4F06C0769567955795479580589F4F24
:1013800097E076956795579547959A95D1F70BC055
:1013900080E090E005C080E090E005C08FEF90E035
:1013A00040E050E0BA01982F979599279795A62F7E
:1013B000AF77E795EE27E79586953A2F392B282FBB
:1013C0002E2B842F952FA32FB22FBC01CD011F915F
:1013D0000F91FF90EF90DF90CF900895DC01FB011B
:1013E0004C9111965C91119712968C911297682FDF
:1013F0006F7770E0982F991F9927991F13962C915A
:101400001397822F880F892B90E0221F2227221FFB
:101410002183009739F5411551056105710511F4D6
:1014200082E029C082E89FEF9383828327E0440F04
:10143000551F661F771F2A95D1F783E0808309C067
:10144000440F551F661F771F8281938101979383F5
:101450008283403080E0580780E0680780E47807A6
:1014600078F320C08F3F910579F44115510561054E
:10147000710519F484E08083089564FF03C081E05E
:10148000808310C010820EC08F5790409383828358
:1014900083E0808387E0440F551F661F771F8A957E
:1014A000D1F7706444835583668377830895CF931F
:1014B000FC01DB019081923008F44CC08C918230A9
:1014C00008F448C0943069F42181843039F41196CD
:1014D0008C91119790E0821B910944C02223D1F195
:1014E0003FC0843021F0923041F48230B1F1119646
:1014F0008C9111978823A1F12DC0C181823001F117
:1015000011968C911197C817D9F482819381129604
:101510002D913C9113972817390794F08217930760
:10152000BCF0448155816681778114968D919D919F
:101530000D90BC91A02D84179507A607B70718F446
:10154000CC2341F00DC0481759076A077B0728F4E0
:10155000CC2331F081E090E005C080E090E002C053
:101560008FEF9FEFCF9108952F923F924F925F920E
:101570006F927F928F929F92AF92BF92CF92DF92A3
:10158000EF92FF920F931F93CF93DF93CDB7DEB708
:1015900065970FB6F894DEBF0FBECDBF4C017F87B5
:1015A0006E87FC0117821682838181FD04C076C399
:1015B0004C855D8504C01E010894211C311CF4017A
:1015C0009381EE85FF8593FD859193FF8191FF8740
:1015D000EE87882309F45EC3853241F493FD85913B
:1015E00093FF8191FF87EE87853259F490E0B40133
:1015F0004C8B5D8B0E948E0F4C895D895D874C877B
:10160000D7CFFF24DD2410E01032B0F48B3269F024
:101610008C3228F4803251F0833271F40BC08D3259
:1016200039F0803349F411602CC01260146029C075
:10163000186027C0106125C017FD2EC0282F205329
:101640002A3098F416FF08C08F2D880FF82EFF0C53
:10165000FF0CF80EF20E15C08D2D880FD82EDD0C64
:10166000DD0CD80ED20E10620CC08E3221F416FDA5
:1016700011C3106406C08C3611F4106802C088369D
:1016800059F4EE85FF8593FD859193FF8191FF8746
:10169000EE87882309F0B8CF982F9554933018F42B
:1016A0001061805E06C0982F9556933008F0A2C155
:1016B0001F7E16FD02C0E6E0FE2E1F73853611F474
:1016C000106406C0863611F4106802C0F110FA9456
:1016D00017FF07C0FBE3FF1548F0EF2CE39427E06A
:1016E0000DC027E02F1530F02F2D07C027E07CE339
:1016F000E72E04C027E067E0F62EEE24CA01049628
:101700009D878C87FA016081718182819381A1011B
:101710000E2D0E94A00E5C01C9802C2D30E0398B6B
:10172000288BC0FE03C0388933FF06C011FD06C0F8
:1017300012FF06C000E205C00DE203C00BE201C0CB
:1017400000E0888999898C709070009709F43CC0FA
:10175000002311F084E001C083E08D1558F4D81AFD
:1017600013FD09C080E290E0B4010E948E0FDA946C
:10177000C9F701C0DD24002329F0802F90E0B401D7
:101780000E948E0F888983FD05C030E9E32E30E08A
:10179000F32E11C02CE8E22E20E0F22E0CC0011531
:1017A000110509F0805290E0B4010E948E0F089458
:1017B000E11CF11C04C0012F10E000711070F70152
:1017C0008491882361F763C217FF0EC0EA0CF88981
:1017D000F4FF04C08A81813309F4EA941E144CF5A5
:1017E00028E02E1548F12CC016FD2AC08F2D90E060
:1017F0008A159B0544F03CEFA3163FEFB3061CF09F
:10180000106801C0FA94FF2049F0E2E0F0E0EC0F2C
:10181000FD1FEF0DF11D80818033A1F317FF10C074
:10182000EF2CE3948F2D90E0A816B90644F4FA1833
:1018300007C0EE24E39404C098E0E92E01C0FF2421
:1018400017FF07C01A141B043CF495012F5F3F4F8C
:1018500005C025E030E002C021E030E0002311F0B7
:101860002F5F3F4FFF2029F08F2D90E00196280F2A
:10187000391F8D2D90E02817390714F4D21A01C0B2
:10188000DD24612E7724C30189709070009749F49C
:1018900006C080E290E0B4010E948E0FDA94DD2051
:1018A000C1F7002329F0802F90E0B4010E948E0F31
:1018B00063FC09C006C080E390E0B4010E948E0F73
:1018C000DA94DD20C1F717FF48C08501B7FE02C0DA
:1018D00000E010E06624772495012E1931093B8B36
:1018E0002A8B2501401A510A420C531C6F2D70E0BF
:1018F000EE24FF24E61AF70A3FEF0F3F130729F4FF
:101900008EE290E0B4010E948E0FA016B10654F052
:101910002A893B89201731072CF4F201E60DF71DC7
:10192000818101C080E3015010400894611C711C4A
:101930000E151F052CF090E0B4010E948E0FDCCF35
:101940000A151B0541F49A81963320F4953319F456
:10195000388934FF81E390E049C08A81813311F0F6
:101960009FEEC92290E0B4010E948E0FFF2089F003
:101970008EE290E0B4010E948E0F12E0F101E10FBF
:10198000F11D1F5F808190E0B4010E948E0FFA94D8
:10199000A9F764FE03C085E490E002C085E690E00C
:1019A000B4010E948E0FB7FC05C0A114B10441F42C
:1019B000C4FE06C0B094A194B108B3948DE201C0F6
:1019C0008BE290E0B4010E948E0F80E305C08F5F30
:1019D000E6EFFFEFAE0EBF1EFAE0AF16B104BCF7A4
:1019E00090E0B4010E948E0FC501C096B4010E9420
:1019F0008E0F4DC1833631F0833789F0833509F07E
:101A000059C022C09A012E5F3F4F3D872C87FA01B3
:101A10008081898381E0E82EF12C510113C09A0165
:101A20002E5F3F4F3D872C87FA01A080B18016FFC3
:101A300003C06F2D70E002C06FEF7FEFC5010E9401
:101A4000830F7C011F7714C09A012E5F3F4F3D87A3
:101A50002C87FA01A080B18016FF03C06F2D70E0C3
:101A600002C06FEF7FEFC5010E94780F7C01106804
:101A700013FD1CC006C080E290E0B4010E948E0FEE
:101A8000DA948D2D90E0E816F906A8F30FC0F50161
:101A900017FD859117FF81915F0190E0B4010E94CD
:101AA0008E0FD110DA940894E108F108E114F104E2
:101AB00071F7EDC0843611F0893671F59A0117FF80
:101AC0000AC02C5F3F4F3D872C87FA0180819181AE
:101AD000A281B3810BC02E5F3F4F3D872C87FA0157
:101AE00080819181AA2797FDA095BA2F012F0F76AB
:101AF000B7FF08C0B095A095909581959F4FAF4FC7
:101B0000BF4F0068BC01CD01A1012AE030E00E9476
:101B1000BA0FE82EE21841C0853721F41F7E2AE073
:101B200030E020C0197F8F36A9F0803720F4883547
:101B300009F0B0C00BC0803721F0883709F0AAC087
:101B400001C0106114FF09C0146007C014FF08C071
:101B5000166006C028E030E005C020E130E002C099
:101B600020E132E0CA0117FF09C004969D878C87E7
:101B7000FA01608171818281938108C002969D87FC
:101B80008C87FA016081718180E090E0A1010E9460
:101B9000BA0FE82EE218012F0F7706FF09C00E7F5B
:101BA000EF1430F404FF06C002FD04C00F7E02C033
:101BB0001E2D01C01F2D802F90E004FF0CC0FE01E0
:101BC000EE0DF11D2081203311F4097E09C002FFC2
:101BD00006C01E5F05C086789070009709F01F5FF1
:101BE000A02EBB2403FD12C000FF0DC0FE2C1D154E
:101BF00050F4FD0CF11A1D2D06C080E290E0B401F6
:101C00000E948E0F1F5F1D15C0F304C01D1510F438
:101C1000D11A01C0DD24A4FE0FC080E390E0B4011E
:101C20000E948E0FA2FE1FC0A1FE03C088E590E0B7
:101C300010C088E790E00DC0C501867890700097CD
:101C400091F0A1FC02C080E201C08BE207FD8DE2B1
:101C500090E0B4010E948E0F06C080E390E0B401D2
:101C60000E948E0FFA94EF14C0F3EA94F101EE0D86
:101C7000F11D808190E0B4010E948E0FEE20A9F743
:101C800006C080E290E0B4010E948E0FDA94DD205D
:101C9000C1F78ECCF4018681978102C08FEF9FEF50
:101CA00065960FB6F894DEBF0FBECDBFDF91CF9122
:101CB0001F910F91FF90EF90DF90CF90BF90AF906A
:101CC0009F908F907F906F905F904F903F902F905C
:101CD00008952F923F924F925F926F927F928F92D0
:101CE0009F92AF92BF92CF92DF92EF92FF920F93AB
:101CF0001F93CF93DF93CDB7DEB7CA1BDB0B0FB6B5
:101D0000F894DEBF0FBECDBF09942A883988488871
:101D10005F846E847D848C849B84AA84B984C88407
:101D2000DF80EE80FD800C811B81AA81B981CE0FFE
:101D3000D11D0FB6F894DEBF0FBECDBFED010895E3
:101D4000283008F027E03327DA01990F311D87FD8D
:101D5000916000966105710539F432602E5F3D9304
:101D600030E32A95E1F708959F3F30F08038710500
:101D7000610509F03C5F3C5F3D93913008F080685D
:101D8000911DDF93CF931F930F93FF92EF92192F23
:101D9000987F9695E92F96959695E90FFF27E25142
:101DA000FF4F99273327EE24FF24A701E701059071
:101DB0000894079428F4360FE71EF81E491F511D9A
:101DC000660F771F881F991F0694A1F70590079447
:101DD00028F4E70EF81E491F561FC11D770F881FF4
:101DE000991F661F0694A1F70590079428F4F80E32
:101DF000491F561FC71FD11D880F991F661F771FC8
:101E00000694A1F70590079420F4490F561FC71FA9
:101E1000D81F990F661F771F881F0694A9F7849112
:101E20001095177041F0D695C79557954795F7943B
:101E3000E7941A95C1F7E4E9F0E0689415901591DC
:101E400035916591959105907FE27395E118F10ABE
:101E5000430B560BC90BD009C0F7E10CF11E431F11
:101E6000561FC91FD01D7EF4703311F48A95E6CF3A
:101E7000E894015030F0080F0AF40027021708F424
:101E8000202F2395022F7A3328F079E37D932A952A
:101E9000E9F710C07D932A9589F606949795679582
:101EA000379517951794E118F10A430B560BC90B98
:101EB000D00998F023957E9173957A3308F070E3FA
:101EC0007C932013B8F77E9170617D9330F08395F9
:101ED00071E37D9370E32A95E1F71124EF90FF9071
:101EE0000F911F91CF91DF91992787FD90950895CC
:101EF000FC010590615070400110D8F780959095D5
:101F00008E0F9F1F0895FC016150704001900110D9
:101F1000D8F7809590958E0F9F1F08950F931F936C
:101F2000CF93DF938C01EB018B8181FF1BC082FF7C
:101F30000DC02E813F818C819D812817390764F463
:101F4000E881F9810193F983E88306C0E885F98582
:101F5000802F0995009731F48E819F8101969F8390
:101F60008E8302C00FEF1FEFC801DF91CF911F9149
:101F70000F910895FA01AA27283051F1203181F1FB
:101F8000E8946F936E7F6E5F7F4F8F4F9F4FAF4F81
:101F9000B1E03ED0B4E03CD0670F781F891F9A1F94
:101FA000A11D680F791F8A1F911DA11D6A0F711D48
:101FB000811D911DA11D20D009F468943F912AE054
:101FC000269F11243019305D3193DEF6CF0108953C
:101FD000462F4770405D4193B3E00FD0C9F7F6CF6D
:101FE000462F4F70405D4A3318F0495D31FD405235
:101FF000419302D0A9F7EACFB4E0A69597958795CB
:1020000077956795BA95C9F70097610571050895A9
:102010009B01AC010A2E0694579547953795279555
:10202000BA95C9F7620F731F841F951FA01D0895ED
:04203000F894FFCF52
:1020340053504920536C617665202E2E2E000000EB
:0620440000000000000096
:00000001FF
