:100000000C9446000C9466000C9466000C946600F8
:100010000C9466000C9468000C9466000C946600C6
:100020000C9466000C9466000C9466000C946600B8
:100030000C9466000C9466000C9466000C946600A8
:100040000C9466000C9466000C9466000C94660098
:100050000C9466000C9466000C9466000C94660088
:100060000C9466000C9466000C9466000C94660078
:100070000C9466000C9466000C9466000C94660068
:100080000C9466000C9466000C94660011241FBE4C
:10009000CFEFD0E1DEBFCDBF11E0A0E0B1E0ECE1F9
:1000A000F1E000E00BBF02C007900D92A030B10755
:1000B000D9F71BBE11E0A0E0B1E001C01D92A03055
:1000C000B107E1F70E9480000C948C000C940000B2
:1000D0001F920F920FB60F9211248F9388B38F5FE8
:1000E00088BB8F910F900FBE0F901F90189583E0E3
:1000F0008ABF089582E08ABF089581E08ABF08958B
:100100008FEF87BB12B818BA80E888BF90E199BF1B
:0C0110008FBF83E08ABFFFCFF894FFCFC1
:00000001FF
