:100000000C9446000C9466000C9466000C946600F8
:100010000C9466000C9466000C9466000C946600C8
:100020000C9466000C9466000C9466000C946600B8
:100030000C9466000C9466000C9466000C946600A8
:100040000C9466000C9466000C9466000C94660098
:100050000C9466000C9466000C9466000C94660088
:100060000C9466000C9466000C9466000C94660078
:100070000C9466000C9466000C9466000C94660068
:100080000C9466000C9466000C94660011241FBE4C
:10009000CFEFD0E1DEBFCDBF11E0A0E0B1E0E6ECF4
:1000A000F5E000E00BBF02C007900D92A032B1074F
:1000B000D9F71BBE11E0A0E2B1E001C01D92A03251
:1000C000B107E1F70E9468000C94E1020C94000073
:1000D000CF93DF93CDB7DEB7A3970FB6F894DEBF0B
:1000E0000FBECDBFCE01049620E031E040E2F90121
:1000F00000802F5F3F4FFC01008201964150442356
:10010000B1F78AE390E0FC01108287E390E0FC0104
:10011000108284E390E02FEFFC01208381E390E0E4
:100120002FEFFC01208382E290E0FC01108289E342
:1001300090E0FC0180818095898386E390E0FC015A
:10014000808180958A8381E290E0FC018081882F04
:1001500090E0809590958F7090708430910509F4AF
:10016000F1C0853091059CF48130910509F457C0A8
:10017000823091051CF4009719F116C28230910566
:1001800009F47EC08330910509F4ABC00DC28730FD
:10019000910509F464C1883091054CF485309105CE
:1001A00009F4FFC08630910509F42AC1FDC18830E9
:1001B000910509F483C18930910509F4BAC1F4C1EC
:1001C00099818A81890F8B8385E390E02B81229529
:1001D0002F70222F30E0220F331FAE014F5F5F4F91
:1001E000240F351F2D5F3F4FF90120813181FC0124
:1001F000208382E390E02B81222F30E02F7030703B
:10020000220F331FAE014F5F5F4F240F351F2D5F4D
:100210003F4FF90120813181FC012083C5C19981C3
:100220008A81F92FF81B8F2F8B8385E390E02B8138
:1002300022952F70222F30E0220F331FAE014F5F27
:100240005F4F240F351F2D5F3F4FF9012081318112
:10025000FC01208382E390E02B81222F30E02F707D
:100260003070220F331FAE014F5F5F4F240F351FD9
:100270002D5F3F4FF90120813181FC01208394C122
:1002800099818A81989F802D11248B8385E390E04A
:100290002B8122952F70222F30E0220F331FAE01C9
:1002A0004F5F5F4F240F351F2D5F3F4FF9012081B6
:1002B0003181FC01208382E390E02B81222F30E00A
:1002C0002F703070220F331FAE014F5F5F4F240F2E
:1002D000351F2D5F3F4FF90120813181FC012083C3
:1002E00063C189819A81692F0E94D5028B8385E33E
:1002F00090E02B8122952F70222F30E0220F331FA8
:10030000AE014F5F5F4F240F351F2D5F3F4FF90147
:1003100020813181FC01208382E390E02B81222F18
:1003200030E02F703070220F331FAE014F5F5F4FF0
:10033000240F351F2D5F3F4FF90120813181FC01D2
:10034000208332C185E390E039812A8123232295DD
:100350002F70222F30E0220F331FAE014F5F5F4F0F
:10036000240F351F2D5F3F4FF90120813181FC01A2
:10037000208382E390E039812A812323222F30E0F9
:100380002F703070220F331FAE014F5F5F4F240F6D
:10039000351F2D5F3F4FF90120813181FC01208302
:1003A00003C185E390E039812A81232B22952F70A8
:1003B000222F30E0220F331FAE014F5F5F4F240F1B
:1003C000351F2D5F3F4FF90120813181FC012083D2
:1003D00082E390E039812A81232B222F30E02F7095
:1003E0003070220F331FAE014F5F5F4F240F351F58
:1003F0002D5F3F4FF90120813181FC012083D4C062
:1004000085E390E02981222F30E0209530952F70F0
:100410003070220F331FAE014F5F5F4F240F351F27
:100420002D5F3F4FF90120813181FC01208382E360
:1004300090E02A81222F30E0209530952F70307087
:10044000220F331FAE014F5F5F4F240F351F2D5F0B
:100450003F4FF90120813181FC012083A5C085E354
:1004600090E039812A81232722952F70222F30E0B6
:10047000220F331FAE014F5F5F4F240F351F2D5FDB
:100480003F4FF90120813181FC01208382E390E01C
:1004900039812A812327222F30E02F703070220FDC
:1004A000331FAE014F5F5F4F240F351F2D5F3F4F4E
:1004B000F90120813181FC01208376C085E390E041
:1004C00039812A81232B222F30E020953095207FFF
:1004D0003070359527953595279535952795359520
:1004E0002795220F331FAE014F5F5F4F240F351F3B
:1004F0002D5F3F4FF90120813181FC01208382E390
:1005000090E039812A81232B222F30E020953095ED
:100510002F703070220F331FAE014F5F5F4F240FDB
:10052000351F2D5F3F4FF90120813181FC01208370
:100530003BC085E390E039812A812323222F30E0DC
:1005400020953095207F30703595279535952795E6
:100550003595279535952795220F331FAE014F5FAF
:100560005F4F240F351F2D5F3F4FF90120813181EF
:10057000FC01208382E390E039812A812323222F0A
:1005800030E0209530952F703070220F331FAE0170
:100590004F5F5F4F240F351F2D5F3F4FF9012081C3
:1005A0003181FC0120830000C2CD991B79E004C099
:1005B000991F961708F0961B881F7A95C9F78095A2
:0605C0000895F894FFCF3E
:1005C6004000790024003000190012000200780073
:1005D60000001000080003004600210006000E007F
:00000001FF
