:100000000C9446000C9466000C9466000C946600F8
:100010000C9466000C94CA030C9466000C94660061
:100020000C9466000C9466000C9466000C946600B8
:100030000C9466000C9466000C9466000C946600A8
:100040000C9466000C9466000C9466000C94660098
:100050000C9466000C9466000C9466000C94660088
:100060000C9466000C9466000C9466000C94660078
:100070000C9466000C9466000C9466000C94660068
:100080000C9466000C9466000C94660011241FBE4C
:10009000CFEFD0E1DEBFCDBF11E0A0E0B1E0E0E8FE
:1000A000F7E200E00BBF02C007900D92AA34B1073F
:1000B000D9F71BBE11E0AAE4B1E001C01D92A3363E
:1000C000B107E1F70E940A090C94BE130C940000DA
:1000D0000F931F93CF93DF93CDB7DEB72E970FB655
:1000E000F894DEBF0FBECDBF80E090E0A8E4B2E49C
:1000F00089839A83AB83BC8369817A818B819C815C
:1001000020E030E04AEF54E40E945D0CDC01CB01BA
:100110008D839E83AF83B88711E06D817E818F814F
:10012000988520E030E040E85FE30E946B0E882372
:100130000CF010E0112329F081E090E09A87898784
:1001400046C011E06D817E818F81988520E03FEF70
:100150004FE757E40E94090E18160CF010E0112327
:1001600061F169817A818B819C8120E030E040E2FD
:1001700051E40E945D0CDC01CB01BC01CD010E9469
:10018000700ADC01CB019A87898712C088EC90E065
:100190009C878B878B859C858C01C8010197F1F723
:1001A0008C011C870B8789859A8501979A87898797
:1001B00089859A85009751F717C06D817E818F815F
:1001C00098850E94700ADC01CB019A87898789850E
:1001D0009A859E878D878D859E858C01C8010197A4
:1001E000F1F78C011E870D872E960FB6F894DEBFAF
:1001F0000FBECDBFDF91CF911F910F9108950F9347
:100200001F93CF93DF93CDB7DEB769970FB6F894FE
:10021000DEBF0FBECDBF898F0E9468008BE390E0E8
:10022000298DFC01208388E390E024E0FC012083F9
:1002300088E390E0FC01108280E090E0A0E8BFE35A
:1002400089839A83AB83BC8369817A818B819C810A
:100250002BEA3AEA4AE250E40E945D0CDC01CB0151
:100260008D839E83AF83B88711E06D817E818F81FE
:10027000988520E030E040E85FE30E946B0E882321
:100280000CF010E0112319F081E08987A3C011E080
:100290006D817E818F81988520E030E04FE753E4C7
:1002A0000E94090E18160CF010E0112309F489C001
:1002B00069817A818B819C8120E030E04AE754E4B7
:1002C0000E945E0DDC01CB018A879B87AC87BD87CE
:1002D0006A857B858C859D8520E030E04AEF54E47B
:1002E0000E945D0CDC01CB018E879F87A88BB98BA8
:1002F00011E06E857F858889998920E030E040E8AB
:100300005FE30E946B0E88230CF010E0112329F0AC
:1003100081E090E09B8B8A8B46C011E06E857F85E3
:100320008889998920E03FEF4FE757E40E94090E42
:1003300018160CF010E0112361F16A857B858C851D
:100340009D8520E030E040E251E40E945D0CDC013C
:10035000CB01BC01CD010E94700ADC01CB019B8B5B
:100360008A8B12C088EC90E09D8B8C8B8C899D8948
:100370008C01C8010197F1F78C011D8B0C8B8A89C8
:100380009B8901979B8B8A8B8A899B89009751F760
:1003900028C06E857F85888999890E94700ADC0152
:1003A000CB019B8B8A8B8A899B899F8B8E8B8E89B5
:1003B0009F898C01F8013197F1F78F011F8B0E8B0C
:1003C00010C06D817E818F8198850E94700ADC014A
:1003D000CB0189878985888F888D182F1A95F1F729
:1003E000188F69960FB6F894DEBF0FBECDBFDF91B0
:1003F000CF911F910F910895CF93DF93CDB7DEB7C3
:100400008AE390E02FEFFC01208387E390E02FEF59
:10041000FC01208388E30E94FF0088E00E94FF0027
:1004200081E00E94FF0086E00E94FF008FE00E94B2
:10043000FF00DF91CF9108950F931F93CF93DF9328
:10044000CDB7DEB769970FB6F894DEBF0FBECDBF4C
:10045000898F0E9468008BE390E0298DFC01208346
:1004600088E390E025E0FC01208388E390E021E030
:10047000FC01208380E090E0A8E4B2E489839A83C1
:10048000AB83BC8369817A818B819C812BEA3AEAB8
:100490004AE250E40E945D0CDC01CB018D839E8317
:1004A000AF83B88711E06D817E818F81988520E0D0
:1004B00030E040E85FE30E946B0E88230CF010E010
:1004C000112319F081E08987A3C011E06D817E813D
:1004D0008F81988520E030E04FE753E40E94090EB9
:1004E00018160CF010E0112309F489C069817A8193
:1004F0008B819C8120E030E04AE754E40E945E0D4D
:10050000DC01CB018A879B87AC87BD876A857B85A9
:100510008C859D8520E030E04AEF54E40E945D0C1C
:10052000DC01CB018E879F87A88BB98B11E06E858C
:100530007F858889998920E030E040E85FE30E9468
:100540006B0E88230CF010E0112329F081E090E07D
:100550009B8B8A8B46C011E06E857F85888999893F
:1005600020E03FEF4FE757E40E94090E18160CF009
:1005700010E0112361F16A857B858C859D8520E0E3
:1005800030E040E251E40E945D0CDC01CB01BC0193
:10059000CD010E94700ADC01CB019B8B8A8B12C0BB
:1005A00088EC90E09D8B8C8B8C899D898C01C80197
:1005B0000197F1F78C011D8B0C8B8A899B89019720
:1005C0009B8B8A8B8A899B89009751F728C06E85FF
:1005D0007F85888999890E94700ADC01CB019B8BF9
:1005E0008A8B8A899B899F8B8E8B8E899F898C01B0
:1005F000F8013197F1F78F011F8B0E8B10C06D81C1
:100600007E818F8198850E94700ADC01CB018987E9
:100610008985888F888D182F1A95F1F7188F69961C
:100620000FB6F894DEBF0FBECDBFDF91CF911F9103
:100630000F910895CF93DF9300D000D0CDB7DEB7F0
:100640009C838B831A82198289819A812B813C81B8
:10065000820F931FFC018081882389F089819A8110
:100660002B813C81820F931FFC01208189819A811B
:1006700001969A838983822F0E941C02E5CF000095
:100680000F900F900F900F90DF91CF910895CF931F
:10069000DF93CDB7DEB781E00E94FF00DF91CF91FD
:1006A0000895CF93DF93CDB7DEB782E00E94FF00BD
:1006B000DF91CF910895CF93DF9300D000D00F92B8
:1006C000CDB7DEB79B838A837D836C8384E0898387
:1006D0008A819B818130910519F4898182608983A7
:1006E0008C819D818130910519F489818160898394
:1006F00089810E94FF000F900F900F900F900F9034
:10070000DF91CF910895CF93DF9300D000D00F9267
:10071000CDB7DEB79B838A837D836C8380E1898339
:100720008A819B818130910519F489818860898350
:100730008C819D818130910519F489818460898340
:1007400089810E94FF000F900F900F900F900F90E3
:10075000DF91CF910895CF93DF9300D00F92CDB763
:10076000DEB78A836B838A81882F90E00197982F68
:100770009295990F990F907C8B81890F8150806899
:10078000898389810E94FF000F900F900F90DF9165
:10079000CF9108951F920F920FB60F9211248F934D
:1007A0009F93CF93DF93CDB7DEB781E090E0909336
:1007B0004B0180934A01DF91CF919F918F910F90D0
:1007C0000FBE0F901F9018950F931F93CF93DF9339
:1007D000CDB7DEB760970FB6F894DEBF0FBECDBFC2
:1007E0008F87688B84E790E024EAFC012083000077
:1007F00084E790E0FC0180818823D4F781E790E0D2
:10080000FC018081882F90E0887F9070883091056E
:1008100079F783E790E020EDFC01208384E790E006
:1008200024E8FC012083000084E790E0FC01808143
:100830008823D4F781E790E0FC018081882F90E045
:10084000887F90708831910579F783E790E02F8554
:10085000FC01208384E790E024E8FC012083000071
:1008600084E790E0FC0180818823D4F781E790E061
:10087000FC018081882F90E0887F907088329105FC
:1008800079F783E790E02889FC01208384E790E0F2
:1008900024E8FC012083000084E790E0FC018081D3
:1008A0008823D4F781E790E0FC018081882F90E0D5
:1008B000887F90708832910579F784E790E024E989
:1008C000FC01208380E090E0A0E2B1E489839A8378
:1008D000AB83BC8369817A818B819C8120E030E08D
:1008E0004AEF54E40E945D0CDC01CB018D839E83B2
:1008F000AF83B88711E06D817E818F81988520E07C
:1009000030E040E85FE30E946B0E88230CF010E0BB
:10091000112329F081E090E09A87898746C011E091
:100920006D817E818F81988520E03FEF4FE757E40E
:100930000E94090E18160CF010E0112361F1698174
:100940007A818B819C8120E030E040E251E40E947A
:100950005D0CDC01CB01BC01CD010E94700ADC0101
:10096000CB019A87898712C088EC90E09C878B879F
:100970008B859C858C01C8010197F1F78C011C8740
:100980000B8789859A8501979A87898789859A85B2
:10099000009751F717C06D817E818F8198850E94E5
:1009A000700ADC01CB019A87898789859A859E87A1
:1009B0008D878D859E858C01F8013197F1F78F0128
:1009C0001E870D8760960FB6F894DEBF0FBECDBFB1
:1009D000DF91CF911F910F9108950F931F93CF93A4
:1009E000DF93CDB7DEB760970FB6F894DEBF0FBECA
:1009F000CDBF8F87688B84E790E024EAFC012083D9
:100A0000000084E790E0FC0180818823D4F781E72F
:100A100090E0FC018081882F90E0887F9070883082
:100A2000910579F783E790E020EDFC01208384E7CE
:100A300090E024E8FC012083000084E790E0FC01C2
:100A400080818823D4F781E790E0FC018081882FA2
:100A500090E0887F90708831910579F783E790E086
:100A60002F85FC01208384E790E024E8FC012083AB
:100A7000000084E790E0FC0180818823D4F781E7BF
:100A800090E0FC018081882F90E0887F9070883210
:100A9000910579F783E790E02889FC01208384E7BA
:100AA00090E024E8FC012083000084E790E0FC0152
:100AB00080818823D4F781E790E0FC018081882F32
:100AC00090E0887F90708832910579F784E790E014
:100AD00024E9FC01208380E090E0A0E2B1E4898376
:100AE0009A83AB83BC8369817A818B819C8120E06E
:100AF00030E04AEF54E40E945D0CDC01CB018D83B1
:100B00009E83AF83B88711E06D817E818F81988548
:100B100020E030E040E85FE30E946B0E88230CF099
:100B200010E0112329F081E090E09A87898746C080
:100B300011E06D817E818F81988520E03FEF4FE746
:100B400057E40E94090E18160CF010E0112361F111
:100B500069817A818B819C8120E030E040E251E420
:100B60000E945D0CDC01CB01BC01CD010E94700A2A
:100B7000DC01CB019A87898712C088EC90E09C87C2
:100B80008B878B859C858C01C8010197F1F78C01BF
:100B90001C870B8789859A8501979A87898789851C
:100BA0009A85009751F717C06D817E818F81988556
:100BB0000E94700ADC01CB019A87898789859A8512
:100BC0009E878D878D859E858C01F8013197F1F781
:100BD0008F011E870D8760960FB6F894DEBF0FBE9B
:100BE000CDBFDF91CF911F910F9108950F931F9368
:100BF000CF93DF93CDB7DEB760970FB6F894DEBF23
:100C00000FBECDBF888B84E790E024EAFC012083EF
:100C1000000084E790E0FC0180818823D4F781E71D
:100C200090E0FC018081882F90E0887F9070883070
:100C3000910579F783E790E020EDFC01208384E7BC
:100C400090E024E8FC012083000084E790E0FC01B0
:100C500080818823D4F781E790E0FC018081882F90
:100C600090E0887F90708831910579F783E790E074
:100C70002889FC01208384E790E024E8FC0120839C
:100C8000000084E790E0FC0180818823D4F781E7AD
:100C900090E0FC018081882F90E0887F90708832FE
:100CA000910579F784E790E024EAFC0120830000B5
:100CB00084E790E0FC0180818823D4F781E790E00D
:100CC000FC018081882F90E0887F907080319105B1
:100CD00079F783E790E021EDFC01208384E790E041
:100CE00024E8FC012083000084E790E0FC0180817F
:100CF0008823D4F781E790E0FC018081882F90E081
:100D0000887F90708034910579F784E790E024E83B
:100D1000FC012083000084E790E0FC0180818823AF
:100D2000D4F781E790E0FC018081882F90E0887FF4
:100D300090708835910579F783E790E0FC01808118
:100D4000898384E790E024E9FC01208380E090E03F
:100D5000A0E2B1E48A839B83AC83BD836A817B81FB
:100D60008C819D8120E030E04AEF54E40E945D0CCC
:100D7000DC01CB018E839F83A887B98711E06E8148
:100D80007F818885998520E030E040E85FE30E941C
:100D90006B0E88230CF010E0112329F081E090E025
:100DA0009B878A8746C011E06E817F8188859985FF
:100DB00020E03FEF4FE757E40E94090E18160CF0B1
:100DC00010E0112361F16A817B818C819D8120E09B
:100DD00030E040E251E40E945D0CDC01CB01BC013B
:100DE000CD010E94700ADC01CB019B878A8712C06B
:100DF00088EC90E09D878C878C859D858C01C8014F
:100E00000197F1F78C011D870C878A859B850197D7
:100E10009B878A878A859B85009751F717C06E81CB
:100E20007F81888599850E94700ADC01CB019B87B0
:100E30008A878A859B859F878E878E859F858C0173
:100E4000F8013197F1F78F011F870E87898160962E
:100E50000FB6F894DEBF0FBECDBFDF91CF911F91CB
:100E60000F910895CF93DF9300D000D0CDB7DEB7B8
:100E70009C838B831A82198212C0498189819A814D
:100E80002B813C81820F931FFC019081842F692F5D
:100E90000E94ED0489819A8101969A8389838981D0
:100EA0009A81883091054CF30F900F900F900F901E
:100EB000DF91CF910895CF93DF930F92CDB7DEB737
:100EC000898389810E94F6050F90DF91CF91089563
:100ED000CF93DF9300D0CDB7DEB71A8219820FC04F
:100EE00089810E94F605282F89819A81845A9E4F14
:100EF000FC01208389819A8101969A838983898163
:100F00009A818730910564F380915C0182958F709E
:100F1000882F90E0880F991F9C01220F331F220F0A
:100F2000331F280F391F80915C01882F90E08F704C
:100F30009070820F931F9093510180935001809184
:100F40005D0182958F70882F90E0880F991F9C011A
:100F5000220F331F220F331F280F391F80915D018D
:100F6000882F90E08F709070820F931F909355019F
:100F70008093540180915E0182958F70882F90E05C
:100F8000880F991F9C01220F331F220F331F280F38
:100F9000391F80915E01882F90E08F709070820FD2
:100FA000931F90935B0180935A0180915F01882F7A
:100FB00090E0880F991F845E9E4FFC018081918193
:100FC00090935901809358018091600182958F70B0
:100FD000882F90E0880F991F9C01220F331F220F4A
:100FE000331F280F391F80916001882F90E08F7088
:100FF0009070820F931F90935301809352018091C0
:10100000610182958F70882F90E0880F991F9C0155
:10101000220F331F220F331F280F391F80916101C8
:10102000882F90E08F709070820F931F90934D01E6
:1010300080934C018091620182958F70882F90E09F
:10104000880F991F9C01220F331F220F331F280F77
:10105000391F80916201882F90E08F709070820F0D
:10106000931F90935701809356010F900F90DF913B
:10107000CF910895CF92DF92EF92FF920F931F933B
:10108000CF93DF93CDB7DEB72E970FB6F894DEBFC0
:101090000FBECDBF9A8389837C836B835E834D8330
:1010A00038872F831A870987FC86EB86DE86CD86F4
:1010B0008D859E852AE030E0B9010E948A109B014F
:1010C000C90182959295907F9827807F9827482F15
:1010D0008D859E852AE030E0B9010E948A10842B1C
:1010E00080935C018B859C852AE030E0B9010E94E9
:1010F0008A109B01C90182959295907F9827807FE5
:101100009827482F8B859C852AE030E0B9010E9402
:101110008A10842B80935D0189859A852AE030E0CE
:10112000B9010E948A109B01C90182959295907F16
:101130009827807F9827482F89859A852AE030E074
:10114000B9010E948A10842B80935E018F81809365
:101150005F018D819E812AE030E0B9010E948A10F2
:101160009B01C90182959295907F9827807F98274F
:10117000482F8D819E812AE030E0B9010E948A10BB
:10118000842B809360018B819C812AE030E0B9013F
:101190000E948A109B01C90182959295907F9827A1
:1011A000807F9827482F8B819C812AE030E0B9010D
:1011B0000E948A10842B8093610189819A812AE0A0
:1011C00030E0B9010E948A109B01C9018295929575
:1011D000907F9827807F9827482F89819A812AE0DD
:1011E00030E0B9010E948A10842B809362018CE563
:1011F00091E00E9432072E960FB6F894DEBF0FBE24
:10120000CDBFDF91CF911F910F91FF90EF90DF90B5
:10121000CF900895CF92DF92EF92FF920F931F939A
:10122000CF93DF93CDB7DEB7E8970FB6F894DEBF64
:101230000FBECDBF0E94FC0182E290E0DC011C9257
:1012400083E290E020E1FC0120838FE590E020E83C
:10125000DC012C9389E590E020E1FC0120838AE504
:1012600090E022E0DC012C9380E790E022E0FC019A
:10127000208381E790E0DC011C9284E190E067E04C
:1012800070E04AE050E025E030E002E010E00F2E90
:10129000F6E2EF2EFF24F02D0F2EF4E1CF2EDD2409
:1012A000F02D0E943A0801C0000080914A019091FF
:1012B0004B0181309105C1F780E090E0AAE7B4E4EA
:1012C00089839A83AB83BC8369817A818B819C817A
:1012D00020E030E04AEF54E40E945D0CDC01CB01D9
:1012E0008D839E83AF83B88711E06D817E818F816E
:1012F000988520E030E040E85FE30E946B0E882391
:101300000CF010E0112329F081E090E09A878987A2
:1013100046C011E06D817E818F81988520E03FEF8E
:101320004FE757E40E94090E18160CF010E0112345
:1013300061F169817A818B819C8120E030E040E21B
:1013400051E40E945D0CDC01CB01BC01CD010E9487
:10135000700ADC01CB019A87898712C088EC90E083
:101360009C878B878B859C858C01F8013197F1F7E1
:101370008F011C870B8789859A8501979A878987B2
:1013800089859A85009751F717C06D817E818F817D
:1013900098850E94700ADC01CB019A87898789852C
:1013A0009A859E878D878D859E858C01C8010197C2
:1013B000F1F78C011E870D870E94680781E061E0CC
:1013C0000E94AB03A0915601B0915701B8AFAFABEB
:1013D00060914C0170914D01409152015091530127
:1013E0002091580130915901EDB7FEB73C970FB6E7
:1013F000F894FEBF0FBEEDBF8DB79EB70196DE011C
:101400001F96FC01B183A083AAE2B1E0FC01B38383
:10141000A283EFA9F8ADDC011596FC93EE93149727
:10142000DC0117967C936E931697FC0151874087D9
:10143000DC011B963C932E931A970E94E810EDB79F
:10144000FEB73C960FB6F894FEBF0FBEEDBFCE01BF
:101450000F960E941A0382E061E00E94AB03609144
:101460005A0170915B0140915401509155012091B6
:101470005001309151018DB79EB70A970FB6F8947D
:101480009EBF0FBE8DBF8DB79EB70196FE01B3966E
:10149000DC01ED93FC93E9E3F1E0DC011396FC93AE
:1014A000EE931297FC0175836483DC0117965C93BD
:1014B0004E931697FC01318720870E94E8108DB764
:1014C0009EB70A960FB6F8949EBF0FBE8DBFCE0191
:1014D00083960E941A0310924B0110924A01E4CEA7
:1014E000CF92DF92EF92FF920F931F936B017C01DB
:1014F00020E030E040E05FE40E943A0E87FD11C03A
:10150000C701B60120E030E040E05FE40E94250C16
:101510000E949C0E8B019C010050104020403048DE
:1015200006C0C701B6010E949C0E8B019C01B80148
:10153000C9011F910F91FF90EF90DF90CF90089518
:10154000A0E0B0E0E6EAFAE00C94B310EC014B0145
:10155000FA018881823008F43EC1DB019C9192300F
:1015600008F436C1843059F4943009F034C19981BB
:1015700011968C911197981709F027C12CC19430BE
:1015800009F426C19230A9F4823009F024C1CE01B9
:1015900028E0DC010D90CD01DA010D92AD01215062
:1015A000C1F7D40111968C91119799818923818378
:1015B00011C1823009F40CC1AA80BB80DB011296F4
:1015C0004D915C911397CC80DD80EE80FF80149666
:1015D0000D911D912D913C911797C501841B950B81
:1015E000DC0197FF04C0AA27BB27A81BB90BA032B8
:1015F000B1050CF067C01816190684F528013901E9
:101600000A2E04C076946794579447940A94D2F7AC
:1016100041E050E060E070E004C0440F551F661FD9
:10162000771FAA95D2F74150504060407040402348
:1016300051236223732381E090E0A0E0B0E04115E4
:1016400051056105710519F480E090E0DC018C0121
:101650009D0104291529262937293FC00097E9F162
:10166000AA0EBB1E260137010A2E04C07694679489
:10167000579447940A94D2F741E050E060E070E05C
:1016800004C0440F551F661F771FAA95D2F741501B
:101690005040604070404C215D216E217F2181E0EF
:1016A00090E0A0E0B0E0411551056105710519F425
:1016B00080E090E0DC016C017D01C428D528E6289B
:1016C000F7280BC04A155B0524F400E010E09801F0
:1016D00004C05A01CC24DD2476018981D4011196FD
:1016E0009C911197891709F445C0882329F00C199A
:1016F0001D092E093F0908C0D701C601801B910BA7
:10170000A20BB30B8C019D0137FD04C01182B38283
:10171000A2820BC081E08183B382A28230952095A2
:10172000109501951F4F2F4F3F4F0483158326833C
:1017300037830DC0880F991FAA1FBB1F8483958311
:10174000A683B78382819381019793838283848167
:101750009581A681B781AC01BD01415050406040E8
:1017600070404F3F2FEF52072FEF62072FE37207B2
:1017700008F30BC08183B382A2820C0D1D1D2E1DA8
:101780003F1D048315832683378383E08083448150
:1017900055816681778177FF1DC0DB01CA018170A9
:1017A0009070A070B0707695679557954795842B8B
:1017B000952BA62BB72B84839583A683B783828131
:1017C000938101969383828305C0C2E4D1E003C074
:1017D000E40101C0EF01CE01CDB7DEB7E0E10C942A
:1017E000CF10A0E2B0E0E7EFFBE00C94C110DC0109
:1017F000CB018D839E83AF83B88729833A834B8344
:101800005C83CE010596BE01675E7F4F0E94C40FC8
:10181000CE010196BE016F5E7F4F0E94C40FCE01C4
:101820004996BE016F5E7F4FAE01475F5F4F0E94DA
:10183000A00A0E94ED0E462F572F682F792FCB015B
:10184000BA01A096E2E00C94DD10A0E2B0E0EBE279
:10185000FCE00C94C110DC01CB018D839E83AF832F
:10186000B88729833A834B835C83CE010596BE01FA
:10187000675E7F4F0E94C40FCE010196BE016F5E6E
:101880007F4F0E94C40F8A8991E089278A8BCE01FD
:101890004996BE016F5E7F4FAE01475F5F4F0E946A
:1018A000A00A0E94ED0E462F572F682F792FCB01EB
:1018B000BA01A096E2E00C94DD10A0E2B0E0E3E60D
:1018C000FCE00C94B310DC01CB018D839E83AF83CD
:1018D000B88729833A834B835C83CE010596BE018A
:1018E000675E7F4F0E94C40FCE010196BE016F5EFE
:1018F0007F4F0E94C40F998D923078F08989823091
:10190000C0F0943019F4823041F4CAC0843019F424
:10191000923079F4C5C0923051F481E02A8D9A89D1
:10192000291709F480E08A8FCE014996BBC0823026
:1019300051F481E02A8D9A89291709F480E08A8B75
:10194000CE014196AFC04D8C5E8C6F8C78A00D8916
:101950001E892F89388DE0E2F0E040E050E0BA01C6
:10196000882499245401CC24DD247601C20181709D
:1019700090700097D1F0C00ED11EE21EF31EDB0165
:10198000CA01880D991DAA1DBB1D41E050E060E011
:1019900070E0C016D106E206F30618F040E050E011
:1019A000BA01480F591F6A1F7B1F880C991CAA1C7B
:1019B000BB1C37FF08C081E090E0A0E0B0E0882ABF
:1019C000992AAA2ABB2A000F111F221F331F7694BF
:1019D000679457944794319749F68B8D9C8D2B894A
:1019E0003C89820F931F02969C878B8781E02A8D0A
:1019F0009A89291709F480E08A872B853C8517C0CE
:101A0000CA0181709070009761F0F694E794D794C2
:101A1000C79480E090E0A0E0B0E8C82AD92AEA2A7A
:101A2000FB2A76956795579547952F5F3F4F77FD32
:101A3000E7CFC9010BC0440F551F661F771FF7FC86
:101A40004160CC0CDD1CEE1CFF1C01974030A0E077
:101A50005A07A0E06A07A0E47A0768F38B879C879F
:101A6000DB01CA018F779070A070B070803491054F
:101A7000A105B10561F447FD0AC0C114D104E10418
:101A8000F10429F0405C5F4F6F4F7F4F40784D87E6
:101A90005E876F87788B83E08987CE01099602C0C5
:101AA00082E491E00E94ED0E462F572F682F792F88
:101AB000CB01BA01A096E0E10C94CF10A8E1B0E010
:101AC000E4E6FDE00C94BB10DC01CB018D839E832A
:101AD000AF83B88729833A834B835C83CE01059615
:101AE000BE016F5E7F4F0E94C40FCE010196BE0102
:101AF000675F7F4F0E94C40F9989923008F475C0C8
:101B00008985823008F474C02A893A8523272A8B74
:101B1000943011F0923021F4981709F066C06BC030
:101B2000843039F41D8A1E8A1F8A188E1C8A1B8AEB
:101B30005CC0823019F484E0898B57C02B893C89C2
:101B40008B859C85281B390B3C8B2B8B8D899E8923
:101B5000AF89B88DCD84DE84EF84F8888C159D051F
:101B6000AE05BF0540F4880F991FAA1FBB1F215067
:101B700030403C8B2B8BEFE1F0E000E010E020E008
:101B800030E440E050E0BA018C159D05AE05BF057C
:101B900040F0402B512B622B732B8C199D09AE0901
:101BA000BF093695279517950795880F991FAA1F86
:101BB000BB1F319749F78A019B010F771070207086
:101BC0003070003411052105310559F447FD09C075
:101BD0000097A105B10529F0405C5F4F6F4F7F4F23
:101BE00040784D8B5E8B6F8B788FCE01419605C010
:101BF000CE01099602C082E491E00E94ED0E462FCC
:101C0000572F682F792FCB01BA016896E8E00C9422
:101C1000D710A8E1B0E0EFE0FEE00C94C110DC01C9
:101C2000CB018D839E83AF83B88729833A834B830F
:101C30005C83CE010596BE016F5E7F4F0E94C40F8C
:101C4000CE010196BE01675F7F4F0E94C40F898954
:101C5000823058F08985823040F0CE014196BE0135
:101C6000675F7F4F0E942D1001C08FEF6896E2E002
:101C70000C94DD10A8E1B0E0E0E4FEE00C94C110AB
:101C8000DC01CB018D839E83AF83B88729833A83A0
:101C90004B835C83CE010596BE016F5E7F4F0E9431
:101CA000C40FCE010196BE01675F7F4F0E94C40F33
:101CB0008989823058F08985823040F0CE01419682
:101CC000BE01675F7F4F0E942D1001C08FEF6896A5
:101CD000E2E00C94DD10A8E1B0E0E1E7FEE00C9456
:101CE000C110DC01CB018D839E83AF83B88729832C
:101CF0003A834B835C83CE010596BE016F5E7F4FB6
:101D00000E94C40FCE010196BE01675F7F4F0E9403
:101D1000C40F8989823058F08985823040F0CE0125
:101D20004196BE01675F7F4F0E942D1001C081E088
:101D30006896E2E00C94DD10ACE0B0E0E2EAFEE090
:101D40000C94BF10DC01CB0189839A83AB83BC83E5
:101D5000CE010196BE016B5F7F4F0E94C40F8D8143
:101D6000823069F1823058F1843039F02F81388522
:101D700037FD25C02F31310544F08E81882319F1BC
:101D800000E010E020E030E822C08EE190E0821B0D
:101D9000930B09851A852B853C8504C036952795BC
:101DA000179507958A95D2F78E81882381F0309513
:101DB0002095109501951F4F2F4F3F4F08C000E011
:101DC00010E0980104C00FEF1FEF2FEF3FE7B801BD
:101DD000C9012C96E4E00C94DB10CF92DF92EF92D5
:101DE000FF920F931F93DC0114964D915D916D91BD
:101DF0007C9117971196EC9111978C91823020F479
:101E000060618FEF90E0A5C0843009F49DC08230FE
:101E100009F494C0411551056105710509F491C09B
:101E200012968D919C9113972FEF823892070CF0A8
:101E300059C022E83FEF281B390B2A31310564F5E0
:101E40006A017B01022E04C0F694E794D794C794EC
:101E50000A94D2F781E090E0A0E0B0E004C0880FDF
:101E6000991FAA1FBB1F2A95D2F70197A109B10993
:101E700084239523A623B72341E050E060E070E07F
:101E80000097A105B10519F440E050E0BA014C29D2
:101E90005D296E297F2903C040E050E0BA01DB01D3
:101EA000CA018F779070A070B07080349105A10541
:101EB000B10539F447FF09C0405C5F4F6F4F7F4F5A
:101EC00004C0415C5F4F6F4F7F4F81E090E0403036
:101ED00020E0520720E0620720E4720738F580E036
:101EE00090E024C0803891057CF58A019B010F7732
:101EF000107020703070003411052105310539F45F
:101F000047FF09C0405C5F4F6F4F7F4F04C0415C8B
:101F10005F4F6F4F7F4F77FD03C081589F4F06C0C3
:101F2000769567955795479580589F4F97E076959A
:101F30006795579547959A95D1F70BC080E090E04B
:101F400005C080E090E005C08FEF90E040E050E0F9
:101F5000BA01982F979599279795A62FAF77E79570
:101F6000EE27E79586953A2F392B282F2E2B842F95
:101F7000952FA32FB22FBC01CD011F910F91FF9080
:101F8000EF90DF90CF900895DC01FB014C9111960A
:101F90005C91119712968C911297682F6F7770E071
:101FA000982F991F9927991F13962C911397822F79
:101FB000880F892B90E0221F2227221F2183009760
:101FC00039F5411551056105710511F482E029C00B
:101FD00082E89FEF9383828327E0440F551F661F9B
:101FE000771F2A95D1F783E0808309C0440F551FDE
:101FF000661F771F8281938101979383828340308C
:1020000080E0580780E0680780E4780778F320C014
:102010008F3F910579F4411551056105710519F45A
:1020200084E08083089564FF03C081E0808310C052
:1020300010820EC08F5790409383828383E0808309
:1020400087E0440F551F661F771F8A95D1F770648C
:1020500044835583668377830895CF93FC01DB0126
:102060009081923008F44CC08C91823008F448C0C2
:10207000943069F42181843039F411968C91119750
:1020800090E0821B910944C02223D1F13FC08430EB
:1020900021F0923041F48230B1F111968C91119778
:1020A0008823A1F12DC0C181823001F111968C915C
:1020B0001197C817D9F48281938112962D913C9182
:1020C00013972817390794F082179307BCF04481BF
:1020D00055816681778114968D919D910D90BC916B
:1020E000A02D84179507A607B70718F4CC2341F055
:1020F0000DC0481759076A077B0728F4CC2331F035
:1021000081E090E005C080E090E002C08FEF9FEF9B
:10211000CF91089597FB092E07260AD077FD04D0AA
:102120000CD006D000201AF4709561957F4F089569
:10213000F6F7909581959F4F0895AA1BBB1B51E11F
:1021400007C0AA1FBB1FA617B70710F0A61BB70B27
:10215000881F991F5A95A9F780959095BC01CD01CC
:1021600008952F923F924F925F926F927F928F923B
:102170009F92AF92BF92CF92DF92EF92FF920F9316
:102180001F93CF93DF93CDB7DEB7CA1BDB0B0FB620
:10219000F894DEBF0FBECDBF09942A8839884888DD
:1021A0005F846E847D848C849B84AA84B984C88473
:1021B000DF80EE80FD800C811B81AA81B981CE0F6A
:1021C000D11D0FB6F894DEBF0FBECDBFED0108954F
:1021D0000F931F93CF93DF93CDB7DEB72E970FB634
:1021E000F894DEBF0FBECDBF0D891E8986E08C83BB
:1021F0001A8309838FEF9FE79E838D83AE01475E2D
:102200005F4FCE0101966F89788D0E941711EF8183
:10221000F885E00FF11F10822E960FB6F894DEBFFE
:102220000FBECDBFDF91CF911F910F9108952F92D7
:102230003F924F925F926F927F928F929F92AF9256
:10224000BF92CF92DF92EF92FF920F931F93CF93A3
:10225000DF93CDB7DEB72D970FB6F894DEBF0FBE74
:10226000CDBF3C017D876C875A01FC011782168225
:10227000838181FFC8C12E010894411C511CF301C8
:102280009381EC85FD8593FD859193FF8191FD8779
:10229000EC87882309F4B3C1853241F493FD85911D
:1022A00093FF8191FD87EC87853229F490E0B3019B
:1022B0000E943413E4CFFF24EE2410E01032B0F477
:1022C0008B3269F08C3228F4803251F0833271F411
:1022D0000BC08D3239F0803349F411602CC012608C
:1022E000146029C0186027C0106125C017FD2EC0DA
:1022F000282F20532A3098F416FF08C08F2D880FFE
:10230000F82EFF0CFF0CF80EF20E15C08E2D880F64
:10231000E82EEE0CEE0CE80EE20E10620CC08E32CF
:1023200021F416FD6CC1106406C08C3611F41068DF
:1023300002C0883659F4EC85FD8593FD859193FFA5
:102340008191FD87EC87882309F0B8CF982F9554A9
:10235000933018F09052933038F424E030E0A20E1D
:10236000B31E3FE339830FC0833631F0833781F0EA
:10237000833509F05AC022C0F5018081898322E0AB
:1023800030E0A20EB31E21E0C22ED12C420114C0B7
:1023900092E0292E312C2A0C3B1CF5018080918083
:1023A00016FF03C06F2D70E002C06FEF7FEFC40116
:1023B0000E9429136C0151011F7715C082E0282E5D
:1023C000312C2A0C3B1CF5018080918016FF03C044
:1023D0006F2D70E002C06FEF7FEFC4010E941E13EB
:1023E0006C011068510113FD1CC006C080E290E032
:1023F000B3010E943413EA948E2D90E0C816D906DA
:10240000A8F30FC0F40117FD859117FF81914F01CB
:1024100090E0B3010E943413E110EA940894C108DB
:10242000D108C114D10471F7E7C0843611F08936A0
:1024300051F5F50117FF07C080819181A281B38119
:1024400024E030E008C080819181AA2797FDA09503
:10245000BA2F22E030E0A20EB31E012F0F76B7FF95
:1024600008C0B095A095909581959F4FAF4FBF4FF5
:102470000068BC01CD01A2012AE030E00E94601397
:10248000D82ED4183FC0853721F41F7E2AE030E0D3
:1024900020C0197F8F36A9F0803720F4883509F0E5
:1024A000AEC00BC0803721F0883709F0A8C001C04A
:1024B000106114FF09C0146007C014FF08C0166043
:1024C00006C028E030E005C020E130E002C020E195
:1024D00032E0F50117FF07C060817181828193812D
:1024E00044E050E006C06081718180E090E042E00D
:1024F00050E0A40EB51EA2010E946013D82ED4187D
:10250000012F0F7706FF09C00E7FDF1430F404FFA0
:1025100006C002FD04C00F7E02C01D2D01C01F2D8C
:10252000802F90E004FF0CC0FE01ED0DF11D208115
:10253000203311F4097E09C002FF06C01E5F05C0EA
:1025400086789070009709F01F5F802E992403FD14
:1025500012C000FF0DC0FD2C1E1550F4FE0CF11A28
:102560001E2D06C080E290E0B3010E9434131F5F6D
:102570001E15C0F304C01E1510F4E11A01C0EE24AC
:1025800084FE0FC080E390E0B3010E94341382FE0A
:102590001FC081FE03C088E590E010C088E790E08E
:1025A0000DC0C40186789070009791F081FC02C044
:1025B00080E201C08BE207FD8DE290E0B3010E9452
:1025C000341306C080E390E0B3010E943413FA9400
:1025D000DF14C0F3DA94F201ED0DF11D808190E07B
:1025E000B3010E943413DD20A9F706C080E290E019
:1025F000B3010E943413EA94EE20C1F740CEF301F8
:102600008681978102C08FEF9FEF2D960FB6F894C9
:10261000DEBF0FBECDBFDF91CF911F910F91FF9015
:10262000EF90DF90CF90BF90AF909F908F907F9072
:102630006F905F904F903F902F900895FC01059010
:10264000615070400110D8F7809590958E0F9F1FB4
:102650000895FC016150704001900110D8F78095F9
:1026600090958E0F9F1F08950F931F93CF93DF9325
:102670008C01EB018B8181FF1BC082FF0DC02E817D
:102680003F818C819D812817390764F4E881F981A5
:102690000193F983E88306C0E885F985802F0995C1
:1026A000009731F48E819F8101969F838E8302C0B3
:1026B0000FEF1FEFC801DF91CF911F910F91089588
:1026C000FA01AA27283051F1203181F1E8946F9363
:1026D0006E7F6E5F7F4F8F4F9F4FAF4FB1E03ED009
:1026E000B4E03CD0670F781F891F9A1FA11D680FA7
:1026F000791F8A1F911DA11D6A0F711D811D911DDA
:10270000A11D20D009F468943F912AE0269F11244E
:102710003019305D3193DEF6CF010895462F4770B2
:10272000405D4193B3E00FD0C9F7F6CF462F4F700D
:10273000405D4A3318F0495D31FD4052419302D06B
:10274000A9F7EACFB4E0A695979587957795679511
:10275000BA95C9F700976105710508959B01AC0111
:102760000A2E06945795479537952795BA95C9F738
:10277000620F731F841F951FA01D0895F894FFCF4B
:1027800073756E006D6F6E0074756500776564001B
:102790007468750066726900736174000001040159
:1027A00008010C01100114011801323025642020A9
:1027B00025642F25642025730025643A25643A2575
:0A27C00064000000000000000000AB
:00000001FF
